{
  "_format": "hh-sol-artifact-1",
  "contractName": "LendingProtocol",
  "sourceName": "contracts/LendingProtocol.sol",
  "abi": [
    {
      "inputs": [
        {
          "internalType": "address",
          "name": "_collateralToken",
          "type": "address"
        },
        {
          "internalType": "address",
          "name": "_loanToken",
          "type": "address"
        }
      ],
      "stateMutability": "nonpayable",
      "type": "constructor"
    },
    {
      "anonymous": false,
      "inputs": [
        {
          "indexed": true,
          "internalType": "address",
          "name": "user",
          "type": "address"
        },
        {
          "indexed": false,
          "internalType": "uint256",
          "name": "amount",
          "type": "uint256"
        }
      ],
      "name": "Borrowed",
      "type": "event"
    },
    {
      "anonymous": false,
      "inputs": [
        {
          "indexed": true,
          "internalType": "address",
          "name": "user",
          "type": "address"
        },
        {
          "indexed": false,
          "internalType": "uint256",
          "name": "amount",
          "type": "uint256"
        }
      ],
      "name": "Deposited",
      "type": "event"
    },
    {
      "anonymous": false,
      "inputs": [
        {
          "indexed": true,
          "internalType": "address",
          "name": "user",
          "type": "address"
        },
        {
          "indexed": false,
          "internalType": "uint256",
          "name": "interestAmount",
          "type": "uint256"
        }
      ],
      "name": "InterestMinted",
      "type": "event"
    },
    {
      "anonymous": false,
      "inputs": [
        {
          "indexed": true,
          "internalType": "address",
          "name": "user",
          "type": "address"
        },
        {
          "indexed": false,
          "internalType": "uint256",
          "name": "totalPaid",
          "type": "uint256"
        }
      ],
      "name": "Repaid",
      "type": "event"
    },
    {
      "anonymous": false,
      "inputs": [
        {
          "indexed": true,
          "internalType": "address",
          "name": "user",
          "type": "address"
        },
        {
          "indexed": false,
          "internalType": "uint256",
          "name": "amount",
          "type": "uint256"
        }
      ],
      "name": "Withdrawn",
      "type": "event"
    },
    {
      "inputs": [],
      "name": "COLLATERAL_RATIO",
      "outputs": [
        {
          "internalType": "uint256",
          "name": "",
          "type": "uint256"
        }
      ],
      "stateMutability": "view",
      "type": "function"
    },
    {
      "inputs": [],
      "name": "INTEREST_RATE",
      "outputs": [
        {
          "internalType": "uint256",
          "name": "",
          "type": "uint256"
        }
      ],
      "stateMutability": "view",
      "type": "function"
    },
    {
      "inputs": [],
      "name": "borrowMax",
      "outputs": [],
      "stateMutability": "nonpayable",
      "type": "function"
    },
    {
      "inputs": [
        {
          "internalType": "address",
          "name": "",
          "type": "address"
        }
      ],
      "name": "collateralBalance",
      "outputs": [
        {
          "internalType": "uint256",
          "name": "",
          "type": "uint256"
        }
      ],
      "stateMutability": "view",
      "type": "function"
    },
    {
      "inputs": [],
      "name": "collateralToken",
      "outputs": [
        {
          "internalType": "contract ICollateralToken",
          "name": "",
          "type": "address"
        }
      ],
      "stateMutability": "view",
      "type": "function"
    },
    {
      "inputs": [
        {
          "internalType": "uint256",
          "name": "amount",
          "type": "uint256"
        }
      ],
      "name": "depositCollateral",
      "outputs": [],
      "stateMutability": "nonpayable",
      "type": "function"
    },
    {
      "inputs": [
        {
          "internalType": "address",
          "name": "user",
          "type": "address"
        }
      ],
      "name": "getUserData",
      "outputs": [
        {
          "internalType": "uint256",
          "name": "collateral",
          "type": "uint256"
        },
        {
          "internalType": "uint256",
          "name": "debt",
          "type": "uint256"
        },
        {
          "internalType": "uint256",
          "name": "interest",
          "type": "uint256"
        },
        {
          "internalType": "bool",
          "name": "interestMinted",
          "type": "bool"
        }
      ],
      "stateMutability": "view",
      "type": "function"
    },
    {
      "inputs": [
        {
          "internalType": "address",
          "name": "",
          "type": "address"
        }
      ],
      "name": "hasClaimedInitial",
      "outputs": [
        {
          "internalType": "bool",
          "name": "",
          "type": "bool"
        }
      ],
      "stateMutability": "view",
      "type": "function"
    },
    {
      "inputs": [],
      "name": "loanToken",
      "outputs": [
        {
          "internalType": "contract ILoanToken",
          "name": "",
          "type": "address"
        }
      ],
      "stateMutability": "view",
      "type": "function"
    },
    {
      "inputs": [
        {
          "internalType": "address",
          "name": "",
          "type": "address"
        }
      ],
      "name": "loans",
      "outputs": [
        {
          "internalType": "uint256",
          "name": "amount",
          "type": "uint256"
        },
        {
          "internalType": "uint256",
          "name": "interest",
          "type": "uint256"
        },
        {
          "internalType": "bool",
          "name": "interestMinted",
          "type": "bool"
        }
      ],
      "stateMutability": "view",
      "type": "function"
    },
    {
      "inputs": [],
      "name": "mintInitialCollateral",
      "outputs": [],
      "stateMutability": "nonpayable",
      "type": "function"
    },
    {
      "inputs": [],
      "name": "mintInterest",
      "outputs": [],
      "stateMutability": "nonpayable",
      "type": "function"
    },
    {
      "inputs": [],
      "name": "repayLoan",
      "outputs": [],
      "stateMutability": "nonpayable",
      "type": "function"
    },
    {
      "inputs": [],
      "name": "withdrawCollateral",
      "outputs": [],
      "stateMutability": "nonpayable",
      "type": "function"
    }
  ],
  "bytecode": "0x60c06040523480156200001157600080fd5b5060405162001bbd38038062001bbd833981810160405281019062000037919062000111565b8173ffffffffffffffffffffffffffffffffffffffff1660808173ffffffffffffffffffffffffffffffffffffffff16815250508073ffffffffffffffffffffffffffffffffffffffff1660a08173ffffffffffffffffffffffffffffffffffffffff1681525050505062000158565b600080fd5b600073ffffffffffffffffffffffffffffffffffffffff82169050919050565b6000620000d982620000ac565b9050919050565b620000eb81620000cc565b8114620000f757600080fd5b50565b6000815190506200010b81620000e0565b92915050565b600080604083850312156200012b576200012a620000a7565b5b60006200013b85828601620000fa565b92505060206200014e85828601620000fa565b9150509250929050565b60805160a051611a15620001a86000396000818161027c0152818161047901528181610ae40152610e730152600081816106c801528181610917015281816109c70152610c0d0152611a156000f3fe608060405234801561001057600080fd5b50600436106100ea5760003560e01c8063a1bf28401161008c578063bad4a01f11610066578063bad4a01f14610203578063d9e69a051461021f578063f966ade71461023d578063ffc9896b14610247576100ea565b8063a1bf2840146101ab578063b2016bd4146101db578063b4aa2f28146101f9576100ea565b806359c153be116100c857806359c153be146101475780635b72a33a1461015157806373b4086b1461016f5780637bfcd472146101a1576100ea565b806306d37817146100ef57806326faf3131461010d5780632be5def214610117575b600080fd5b6100f761027a565b604051610104919061115f565b60405180910390f35b61011561029e565b005b610131600480360381019061012c91906111bd565b610557565b60405161013e9190611205565b60405180910390f35b61014f610577565b005b6101596107f4565b6040516101669190611239565b60405180910390f35b610189600480360381019061018491906111bd565b6107f9565b60405161019893929190611254565b60405180910390f35b6101a9610830565b005b6101c560048036038101906101c091906111bd565b6109ad565b6040516101d29190611239565b60405180910390f35b6101e36109c5565b6040516101f091906112ac565b60405180910390f35b6102016109e9565b005b61021d600480360381019061021891906112f3565b610bc8565b005b610227610d90565b6040516102349190611239565b60405180910390f35b610245610d95565b005b610261600480360381019061025c91906111bd565b610fb6565b6040516102719493929190611320565b60405180910390f35b7f000000000000000000000000000000000000000000000000000000000000000081565b6000600160003373ffffffffffffffffffffffffffffffffffffffff1673ffffffffffffffffffffffffffffffffffffffff1681526020019081526020016000206000015414610323576040517f08c379a000000000000000000000000000000000000000000000000000000000815260040161031a906113c2565b60405180910390fd5b60008060003373ffffffffffffffffffffffffffffffffffffffff1673ffffffffffffffffffffffffffffffffffffffff168152602001908152602001600020549050600081116103a9576040517f08c379a00000000000000000000000000000000000000000000000000000000081526004016103a09061142e565b60405180910390fd5b600060966064836103ba919061147d565b6103c491906114ee565b9050600060646005836103d7919061147d565b6103e191906114ee565b9050604051806060016040528083815260200182815260200160001515815250600160003373ffffffffffffffffffffffffffffffffffffffff1673ffffffffffffffffffffffffffffffffffffffff168152602001908152602001600020600082015181600001556020820151816001015560408201518160020160006101000a81548160ff0219169083151502179055509050507f000000000000000000000000000000000000000000000000000000000000000073ffffffffffffffffffffffffffffffffffffffff166340c10f1933846040518363ffffffff1660e01b81526004016104d292919061152e565b600060405180830381600087803b1580156104ec57600080fd5b505af1158015610500573d6000803e3d6000fd5b505050503373ffffffffffffffffffffffffffffffffffffffff167fac59582e5396aca512fa873a2047e7f4c80f8f55d4a06cb34a78a0187f62719f8360405161054a9190611239565b60405180910390a2505050565b60026020528060005260406000206000915054906101000a900460ff1681565b6000600160003373ffffffffffffffffffffffffffffffffffffffff1673ffffffffffffffffffffffffffffffffffffffff16815260200190815260200160002060000154146105fc576040517f08c379a00000000000000000000000000000000000000000000000000000000081526004016105f3906115a3565b60405180910390fd5b60008060003373ffffffffffffffffffffffffffffffffffffffff1673ffffffffffffffffffffffffffffffffffffffff16815260200190815260200160002054905060008111610682576040517f08c379a00000000000000000000000000000000000000000000000000000000081526004016106799061160f565b60405180910390fd5b60008060003373ffffffffffffffffffffffffffffffffffffffff1673ffffffffffffffffffffffffffffffffffffffff168152602001908152602001600020819055507f000000000000000000000000000000000000000000000000000000000000000073ffffffffffffffffffffffffffffffffffffffff1663a9059cbb33836040518363ffffffff1660e01b815260040161072192919061152e565b6020604051808303816000875af1158015610740573d6000803e3d6000fd5b505050506040513d601f19601f82011682018060405250810190610764919061165b565b6107a3576040517f08c379a000000000000000000000000000000000000000000000000000000000815260040161079a906116d4565b60405180910390fd5b3373ffffffffffffffffffffffffffffffffffffffff167f7084f5476618d8e60b11ef0d7d3f06914655adb8793e28ff7f018d4c76d505d5826040516107e99190611239565b60405180910390a250565b600581565b60016020528060005260406000206000915090508060000154908060010154908060020160009054906101000a900460ff16905083565b600260003373ffffffffffffffffffffffffffffffffffffffff1673ffffffffffffffffffffffffffffffffffffffff16815260200190815260200160002060009054906101000a900460ff16156108bd576040517f08c379a00000000000000000000000000000000000000000000000000000000081526004016108b490611740565b60405180910390fd5b6001600260003373ffffffffffffffffffffffffffffffffffffffff1673ffffffffffffffffffffffffffffffffffffffff16815260200190815260200160002060006101000a81548160ff0219169083151502179055507f000000000000000000000000000000000000000000000000000000000000000073ffffffffffffffffffffffffffffffffffffffff166340c10f1933683635c9adc5dea000006040518363ffffffff1660e01b815260040161097992919061179b565b600060405180830381600087803b15801561099357600080fd5b505af11580156109a7573d6000803e3d6000fd5b50505050565b60006020528060005260406000206000915090505481565b7f000000000000000000000000000000000000000000000000000000000000000081565b6000600160003373ffffffffffffffffffffffffffffffffffffffff1673ffffffffffffffffffffffffffffffffffffffff16815260200190815260200160002090506000816000015411610a73576040517f08c379a0000000000000000000000000000000000000000000000000000000008152600401610a6a90611810565b60405180910390fd5b8060020160009054906101000a900460ff1615610ac5576040517f08c379a0000000000000000000000000000000000000000000000000000000008152600401610abc9061187c565b60405180910390fd5b60018160020160006101000a81548160ff0219169083151502179055507f000000000000000000000000000000000000000000000000000000000000000073ffffffffffffffffffffffffffffffffffffffff166340c10f193383600101546040518363ffffffff1660e01b8152600401610b4192919061152e565b600060405180830381600087803b158015610b5b57600080fd5b505af1158015610b6f573d6000803e3d6000fd5b505050503373ffffffffffffffffffffffffffffffffffffffff167f2ee35aad2e33f2a57a13f55b273b9ab5bf3cdd683fe413a7d9e22bcb8b3f67dd8260010154604051610bbd9190611239565b60405180910390a250565b60008111610c0b576040517f08c379a0000000000000000000000000000000000000000000000000000000008152600401610c02906118e8565b60405180910390fd5b7f000000000000000000000000000000000000000000000000000000000000000073ffffffffffffffffffffffffffffffffffffffff166323b872dd3330846040518463ffffffff1660e01b8152600401610c6893929190611908565b6020604051808303816000875af1158015610c87573d6000803e3d6000fd5b505050506040513d601f19601f82011682018060405250810190610cab919061165b565b610cea576040517f08c379a0000000000000000000000000000000000000000000000000000000008152600401610ce1906116d4565b60405180910390fd5b806000803373ffffffffffffffffffffffffffffffffffffffff1673ffffffffffffffffffffffffffffffffffffffff1681526020019081526020016000206000828254610d38919061193f565b925050819055503373ffffffffffffffffffffffffffffffffffffffff167f2da466a7b24304f47e87fa2e1e5a81b9831ce54fec19055ce277ca2f39ba42c482604051610d859190611239565b60405180910390a250565b609681565b6000600160003373ffffffffffffffffffffffffffffffffffffffff1673ffffffffffffffffffffffffffffffffffffffff16815260200190815260200160002060405180606001604052908160008201548152602001600182015481526020016002820160009054906101000a900460ff16151515158152505090506000816000015111610e59576040517f08c379a0000000000000000000000000000000000000000000000000000000008152600401610e50906119bf565b60405180910390fd5b600081602001518260000151610e6f919061193f565b90507f000000000000000000000000000000000000000000000000000000000000000073ffffffffffffffffffffffffffffffffffffffff166379cc679033836040518363ffffffff1660e01b8152600401610ecc92919061152e565b600060405180830381600087803b158015610ee657600080fd5b505af1158015610efa573d6000803e3d6000fd5b50505050600160003373ffffffffffffffffffffffffffffffffffffffff1673ffffffffffffffffffffffffffffffffffffffff16815260200190815260200160002060008082016000905560018201600090556002820160006101000a81549060ff021916905550503373ffffffffffffffffffffffffffffffffffffffff167f0516911bcc3a0a7412a44601057c0a0a1ec628bde049a84284bc42886653448882604051610faa9190611239565b60405180910390a25050565b6000806000806000808673ffffffffffffffffffffffffffffffffffffffff1673ffffffffffffffffffffffffffffffffffffffff168152602001908152602001600020549350600160008673ffffffffffffffffffffffffffffffffffffffff1673ffffffffffffffffffffffffffffffffffffffff168152602001908152602001600020600001549250600160008673ffffffffffffffffffffffffffffffffffffffff1673ffffffffffffffffffffffffffffffffffffffff168152602001908152602001600020600101549150600160008673ffffffffffffffffffffffffffffffffffffffff1673ffffffffffffffffffffffffffffffffffffffff16815260200190815260200160002060020160009054906101000a900460ff1690509193509193565b600073ffffffffffffffffffffffffffffffffffffffff82169050919050565b6000819050919050565b600061112561112061111b846110e0565b611100565b6110e0565b9050919050565b60006111378261110a565b9050919050565b60006111498261112c565b9050919050565b6111598161113e565b82525050565b60006020820190506111746000830184611150565b92915050565b600080fd5b600061118a826110e0565b9050919050565b61119a8161117f565b81146111a557600080fd5b50565b6000813590506111b781611191565b92915050565b6000602082840312156111d3576111d261117a565b5b60006111e1848285016111a8565b91505092915050565b60008115159050919050565b6111ff816111ea565b82525050565b600060208201905061121a60008301846111f6565b92915050565b6000819050919050565b61123381611220565b82525050565b600060208201905061124e600083018461122a565b92915050565b6000606082019050611269600083018661122a565b611276602083018561122a565b61128360408301846111f6565b949350505050565b60006112968261112c565b9050919050565b6112a68161128b565b82525050565b60006020820190506112c1600083018461129d565b92915050565b6112d081611220565b81146112db57600080fd5b50565b6000813590506112ed816112c7565b92915050565b6000602082840312156113095761130861117a565b5b6000611317848285016112de565b91505092915050565b6000608082019050611335600083018761122a565b611342602083018661122a565b61134f604083018561122a565b61135c60608301846111f6565b95945050505050565b600082825260208201905092915050565b7f4578697374696e67206c6f616e00000000000000000000000000000000000000600082015250565b60006113ac600d83611365565b91506113b782611376565b602082019050919050565b600060208201905081810360008301526113db8161139f565b9050919050565b7f4e6f20636f6c6c61746572616c206465706f7369746564000000000000000000600082015250565b6000611418601783611365565b9150611423826113e2565b602082019050919050565b600060208201905081810360008301526114478161140b565b9050919050565b7f4e487b7100000000000000000000000000000000000000000000000000000000600052601160045260246000fd5b600061148882611220565b915061149383611220565b92508282026114a181611220565b915082820484148315176114b8576114b761144e565b5b5092915050565b7f4e487b7100000000000000000000000000000000000000000000000000000000600052601260045260246000fd5b60006114f982611220565b915061150483611220565b925082611514576115136114bf565b5b828204905092915050565b6115288161117f565b82525050565b6000604082019050611543600083018561151f565b611550602083018461122a565b9392505050565b7f4f75747374616e64696e67206c6f616e00000000000000000000000000000000600082015250565b600061158d601083611365565b915061159882611557565b602082019050919050565b600060208201905081810360008301526115bc81611580565b9050919050565b7f4e6f20636f6c6c61746572616c20746f20776974686472617700000000000000600082015250565b60006115f9601983611365565b9150611604826115c3565b602082019050919050565b60006020820190508181036000830152611628816115ec565b9050919050565b611638816111ea565b811461164357600080fd5b50565b6000815190506116558161162f565b92915050565b6000602082840312156116715761167061117a565b5b600061167f84828501611646565b91505092915050565b7f5472616e73666572206661696c65640000000000000000000000000000000000600082015250565b60006116be600f83611365565b91506116c982611688565b602082019050919050565b600060208201905081810360008301526116ed816116b1565b9050919050565b7f496e697469616c206355534420616c726561647920636c61696d656400000000600082015250565b600061172a601c83611365565b9150611735826116f4565b602082019050919050565b600060208201905081810360008301526117598161171d565b9050919050565b6000819050919050565b600061178561178061177b84611760565b611100565b611220565b9050919050565b6117958161176a565b82525050565b60006040820190506117b0600083018561151f565b6117bd602083018461178c565b9392505050565b7f4e6f20616374697665206c6f616e000000000000000000000000000000000000600082015250565b60006117fa600e83611365565b9150611805826117c4565b602082019050919050565b60006020820190508181036000830152611829816117ed565b9050919050565b7f496e74657265737420616c7265616479206d696e746564000000000000000000600082015250565b6000611866601783611365565b915061187182611830565b602082019050919050565b6000602082019050818103600083015261189581611859565b9050919050565b7f416d6f756e74206d7573742062652067726561746572207468616e2030000000600082015250565b60006118d2601d83611365565b91506118dd8261189c565b602082019050919050565b60006020820190508181036000830152611901816118c5565b9050919050565b600060608201905061191d600083018661151f565b61192a602083018561151f565b611937604083018461122a565b949350505050565b600061194a82611220565b915061195583611220565b925082820190508082111561196d5761196c61144e565b5b92915050565b7f4e6f206c6f616e20746f20726570617900000000000000000000000000000000600082015250565b60006119a9601083611365565b91506119b482611973565b602082019050919050565b600060208201905081810360008301526119d88161199c565b905091905056fea264697066735822122066c1baf531aed1c17c63392875edbea8064c57213eb8df192826f3808760c54f64736f6c63430008140033",
  "linkReferences": {},
  "deployedLinkReferences": {}
}