{
  "_format": "hh-sol-artifact-1",
  "contractName": "LendingProtocol",
  "sourceName": "contracts/LendingProtocol.sol",
  "abi": [
    {
      "inputs": [
        {
          "internalType": "address",
          "name": "_collateralToken",
          "type": "address"
        },
        {
          "internalType": "address",
          "name": "_loanToken",
          "type": "address"
        }
      ],
      "stateMutability": "nonpayable",
      "type": "constructor"
    },
    {
      "anonymous": false,
      "inputs": [
        {
          "indexed": true,
          "internalType": "address",
          "name": "user",
          "type": "address"
        },
        {
          "indexed": false,
          "internalType": "uint256",
          "name": "amount",
          "type": "uint256"
        }
      ],
      "name": "CollateralDeposited",
      "type": "event"
    },
    {
      "anonymous": false,
      "inputs": [
        {
          "indexed": true,
          "internalType": "address",
          "name": "user",
          "type": "address"
        },
        {
          "indexed": false,
          "internalType": "uint256",
          "name": "amount",
          "type": "uint256"
        }
      ],
      "name": "CollateralWithdrawn",
      "type": "event"
    },
    {
      "anonymous": false,
      "inputs": [
        {
          "indexed": true,
          "internalType": "address",
          "name": "user",
          "type": "address"
        },
        {
          "indexed": false,
          "internalType": "uint256",
          "name": "amount",
          "type": "uint256"
        }
      ],
      "name": "LoanBorrowed",
      "type": "event"
    },
    {
      "anonymous": false,
      "inputs": [
        {
          "indexed": true,
          "internalType": "address",
          "name": "user",
          "type": "address"
        },
        {
          "indexed": false,
          "internalType": "uint256",
          "name": "amount",
          "type": "uint256"
        },
        {
          "indexed": false,
          "internalType": "uint256",
          "name": "interest",
          "type": "uint256"
        }
      ],
      "name": "LoanRepaid",
      "type": "event"
    },
    {
      "inputs": [],
      "name": "COLLATERAL_RATIO",
      "outputs": [
        {
          "internalType": "uint256",
          "name": "",
          "type": "uint256"
        }
      ],
      "stateMutability": "view",
      "type": "function"
    },
    {
      "inputs": [],
      "name": "INTEREST_RATE",
      "outputs": [
        {
          "internalType": "uint256",
          "name": "",
          "type": "uint256"
        }
      ],
      "stateMutability": "view",
      "type": "function"
    },
    {
      "inputs": [],
      "name": "PRECISION",
      "outputs": [
        {
          "internalType": "uint256",
          "name": "",
          "type": "uint256"
        }
      ],
      "stateMutability": "view",
      "type": "function"
    },
    {
      "inputs": [
        {
          "internalType": "uint256",
          "name": "amount",
          "type": "uint256"
        }
      ],
      "name": "borrow",
      "outputs": [],
      "stateMutability": "nonpayable",
      "type": "function"
    },
    {
      "inputs": [],
      "name": "collateralToken",
      "outputs": [
        {
          "internalType": "contract IERC20",
          "name": "",
          "type": "address"
        }
      ],
      "stateMutability": "view",
      "type": "function"
    },
    {
      "inputs": [
        {
          "internalType": "uint256",
          "name": "amount",
          "type": "uint256"
        }
      ],
      "name": "depositCollateral",
      "outputs": [],
      "stateMutability": "nonpayable",
      "type": "function"
    },
    {
      "inputs": [
        {
          "internalType": "address",
          "name": "user",
          "type": "address"
        }
      ],
      "name": "getMaxBorrowAmount",
      "outputs": [
        {
          "internalType": "uint256",
          "name": "",
          "type": "uint256"
        }
      ],
      "stateMutability": "view",
      "type": "function"
    },
    {
      "inputs": [],
      "name": "getTokenAddresses",
      "outputs": [
        {
          "internalType": "address",
          "name": "collateral",
          "type": "address"
        },
        {
          "internalType": "address",
          "name": "loan",
          "type": "address"
        }
      ],
      "stateMutability": "view",
      "type": "function"
    },
    {
      "inputs": [
        {
          "internalType": "address",
          "name": "user",
          "type": "address"
        }
      ],
      "name": "getUserData",
      "outputs": [
        {
          "internalType": "uint256",
          "name": "collateralBalance",
          "type": "uint256"
        },
        {
          "internalType": "uint256",
          "name": "currentDebt",
          "type": "uint256"
        },
        {
          "internalType": "uint256",
          "name": "accruedInterest",
          "type": "uint256"
        }
      ],
      "stateMutability": "view",
      "type": "function"
    },
    {
      "inputs": [],
      "name": "loanToken",
      "outputs": [
        {
          "internalType": "contract IERC20",
          "name": "",
          "type": "address"
        }
      ],
      "stateMutability": "view",
      "type": "function"
    },
    {
      "inputs": [],
      "name": "repay",
      "outputs": [],
      "stateMutability": "nonpayable",
      "type": "function"
    },
    {
      "inputs": [
        {
          "internalType": "address",
          "name": "",
          "type": "address"
        }
      ],
      "name": "userData",
      "outputs": [
        {
          "internalType": "uint256",
          "name": "collateralBalance",
          "type": "uint256"
        },
        {
          "internalType": "uint256",
          "name": "loanAmount",
          "type": "uint256"
        },
        {
          "internalType": "uint256",
          "name": "accruedInterest",
          "type": "uint256"
        },
        {
          "internalType": "uint256",
          "name": "lastUpdateTime",
          "type": "uint256"
        }
      ],
      "stateMutability": "view",
      "type": "function"
    },
    {
      "inputs": [],
      "name": "withdrawCollateral",
      "outputs": [],
      "stateMutability": "nonpayable",
      "type": "function"
    }
  ],
  "bytecode": "0x60c06040523480156200001157600080fd5b5060405162001931380380620019318339818101604052810190620000379190620001fd565b6001600081905550600073ffffffffffffffffffffffffffffffffffffffff168273ffffffffffffffffffffffffffffffffffffffff1603620000b1576040517f08c379a0000000000000000000000000000000000000000000000000000000008152600401620000a890620002a5565b60405180910390fd5b600073ffffffffffffffffffffffffffffffffffffffff168173ffffffffffffffffffffffffffffffffffffffff160362000123576040517f08c379a00000000000000000000000000000000000000000000000000000000081526004016200011a9062000317565b60405180910390fd5b8173ffffffffffffffffffffffffffffffffffffffff1660808173ffffffffffffffffffffffffffffffffffffffff16815250508073ffffffffffffffffffffffffffffffffffffffff1660a08173ffffffffffffffffffffffffffffffffffffffff1681525050505062000339565b600080fd5b600073ffffffffffffffffffffffffffffffffffffffff82169050919050565b6000620001c58262000198565b9050919050565b620001d781620001b8565b8114620001e357600080fd5b50565b600081519050620001f781620001cc565b92915050565b6000806040838503121562000217576200021662000193565b5b60006200022785828601620001e6565b92505060206200023a85828601620001e6565b9150509250929050565b600082825260208201905092915050565b7f496e76616c696420636f6c6c61746572616c20746f6b656e2061646472657373600082015250565b60006200028d60208362000244565b91506200029a8262000255565b602082019050919050565b60006020820190508181036000830152620002c0816200027e565b9050919050565b7f496e76616c6964206c6f616e20746f6b656e2061646472657373000000000000600082015250565b6000620002ff601a8362000244565b91506200030c82620002c7565b602082019050919050565b600060208201905081810360008301526200033281620002f0565b9050919050565b60805160a0516115a1620003906000396000818161026c01528181610357015281816109fe01528181610afd0152610c5301526000818161063201528181610735015281816107a40152610c3001526115a16000f3fe608060405234801561001057600080fd5b50600436106100cf5760003560e01c8063b2016bd41161008c578063c891091311610066578063c8910913146101c8578063d9e69a05146101fb578063ee8c24b814610219578063ffc9896b14610238576100cf565b8063b2016bd414610172578063bad4a01f14610190578063c5ebeaec146101ac576100cf565b806306d37817146100d4578063402d8883146100f25780634b79cb0f146100fc57806359c153be1461012c5780635b72a33a14610136578063aaf5eb6814610154575b600080fd5b6100dc61026a565b6040516100e99190610e16565b60405180910390f35b6100fa61028e565b005b61011660048036038101906101119190610e74565b61047b565b6040516101239190610eba565b60405180910390f35b610134610544565b005b61013e610729565b60405161014b9190610eba565b60405180910390f35b61015c61072e565b6040516101699190610eba565b60405180910390f35b61017a610733565b6040516101879190610e16565b60405180910390f35b6101aa60048036038101906101a59190610f01565b610757565b005b6101c660048036038101906101c19190610f01565b6108f5565b005b6101e260048036038101906101dd9190610e74565b610bf6565b6040516101f29493929190610f2e565b60405180910390f35b610203610c26565b6040516102109190610eba565b60405180910390f35b610221610c2b565b60405161022f929190610f82565b60405180910390f35b610252600480360381019061024d9190610e74565b610c78565b60405161026193929190610fab565b60405180910390f35b7f000000000000000000000000000000000000000000000000000000000000000081565b610296610d3e565b6000600160003373ffffffffffffffffffffffffffffffffffffffff1673ffffffffffffffffffffffffffffffffffffffff16815260200190815260200160002090506000816001015411610320576040517f08c379a00000000000000000000000000000000000000000000000000000000081526004016103179061103f565b60405180910390fd5b6000606460058360010154610335919061108e565b61033f91906110ff565b905060008183600101546103539190611130565b90507f000000000000000000000000000000000000000000000000000000000000000073ffffffffffffffffffffffffffffffffffffffff166323b872dd3330846040518463ffffffff1660e01b81526004016103b293929190611164565b6020604051808303816000875af11580156103d1573d6000803e3d6000fd5b505050506040513d601f19601f820116820180604052508101906103f591906111d3565b506000836001015490506000846001018190555060008460020181905550600084600301819055503373ffffffffffffffffffffffffffffffffffffffff167fc7ce0a35f17b490de2a317e7fecb2cae86b1abffb03800b2f4928235213826988285604051610465929190611200565b60405180910390a250505050610479610d8d565b565b600080600160008473ffffffffffffffffffffffffffffffffffffffff1673ffffffffffffffffffffffffffffffffffffffff16815260200190815260200160002060405180608001604052908160008201548152602001600182015481526020016002820154815260200160038201548152505090506000609660648360000151610507919061108e565b61051191906110ff565b905081602001518111156105385781602001518161052f9190611229565b9250505061053f565b6000925050505b919050565b61054c610d3e565b6000600160003373ffffffffffffffffffffffffffffffffffffffff1673ffffffffffffffffffffffffffffffffffffffff168152602001908152602001600020905060008160010154146105d6576040517f08c379a00000000000000000000000000000000000000000000000000000000081526004016105cd906112a9565b60405180910390fd5b600081600001541161061d576040517f08c379a000000000000000000000000000000000000000000000000000000000815260040161061490611315565b60405180910390fd5b600081600001549050600082600001819055507f000000000000000000000000000000000000000000000000000000000000000073ffffffffffffffffffffffffffffffffffffffff1663a9059cbb33836040518363ffffffff1660e01b815260040161068b929190611335565b6020604051808303816000875af11580156106aa573d6000803e3d6000fd5b505050506040513d601f19601f820116820180604052508101906106ce91906111d3565b503373ffffffffffffffffffffffffffffffffffffffff167fc30fcfbcaac9e0deffa719714eaa82396ff506a0d0d0eebe170830177288715d826040516107159190610eba565b60405180910390a25050610727610d8d565b565b600581565b606481565b7f000000000000000000000000000000000000000000000000000000000000000081565b61075f610d3e565b600081116107a2576040517f08c379a0000000000000000000000000000000000000000000000000000000008152600401610799906113aa565b60405180910390fd5b7f000000000000000000000000000000000000000000000000000000000000000073ffffffffffffffffffffffffffffffffffffffff166323b872dd3330846040518463ffffffff1660e01b81526004016107ff93929190611164565b6020604051808303816000875af115801561081e573d6000803e3d6000fd5b505050506040513d601f19601f8201168201806040525081019061084291906111d3565b5080600160003373ffffffffffffffffffffffffffffffffffffffff1673ffffffffffffffffffffffffffffffffffffffff16815260200190815260200160002060000160008282546108959190611130565b925050819055503373ffffffffffffffffffffffffffffffffffffffff167fd7243f6f8212d5188fd054141cf6ea89cfc0d91facb8c3afe2f88a1358480142826040516108e29190610eba565b60405180910390a26108f2610d8d565b50565b6108fd610d3e565b60008111610940576040517f08c379a0000000000000000000000000000000000000000000000000000000008152600401610937906113aa565b60405180910390fd5b6000600160003373ffffffffffffffffffffffffffffffffffffffff1673ffffffffffffffffffffffffffffffffffffffff16815260200190815260200160002090506000609660648360000154610998919061108e565b6109a291906110ff565b905060008383600101546109b69190611130565b9050818111156109fb576040517f08c379a00000000000000000000000000000000000000000000000000000000081526004016109f290611416565b60405180910390fd5b837f000000000000000000000000000000000000000000000000000000000000000073ffffffffffffffffffffffffffffffffffffffff166370a08231306040518263ffffffff1660e01b8152600401610a559190611436565b602060405180830381865afa158015610a72573d6000803e3d6000fd5b505050506040513d601f19601f82011682018060405250810190610a969190611466565b1015610ad7576040517f08c379a0000000000000000000000000000000000000000000000000000000008152600401610ace906114df565b60405180910390fd5b83836001016000828254610aeb9190611130565b925050819055504283600301819055507f000000000000000000000000000000000000000000000000000000000000000073ffffffffffffffffffffffffffffffffffffffff1663a9059cbb33866040518363ffffffff1660e01b8152600401610b56929190611335565b6020604051808303816000875af1158015610b75573d6000803e3d6000fd5b505050506040513d601f19601f82011682018060405250810190610b9991906111d3565b503373ffffffffffffffffffffffffffffffffffffffff167ffb8ea5178ac89ff9d832e8c9c1b977ca7ab31f52ac7a4179f2e2e065b093565b85604051610be09190610eba565b60405180910390a2505050610bf3610d8d565b50565b60016020528060005260406000206000915090508060000154908060010154908060020154908060030154905084565b609681565b6000807f000000000000000000000000000000000000000000000000000000000000000091507f000000000000000000000000000000000000000000000000000000000000000090509091565b600080600080600160008673ffffffffffffffffffffffffffffffffffffffff1673ffffffffffffffffffffffffffffffffffffffff16815260200190815260200160002060405180608001604052908160008201548152602001600182015481526020016002820154815260200160038201548152505090508060000151935080602001519250600081602001511115610d3157606460058260200151610d20919061108e565b610d2a91906110ff565b9150610d36565b600091505b509193909250565b600260005403610d83576040517f08c379a0000000000000000000000000000000000000000000000000000000008152600401610d7a9061154b565b60405180910390fd5b6002600081905550565b6001600081905550565b600073ffffffffffffffffffffffffffffffffffffffff82169050919050565b6000819050919050565b6000610ddc610dd7610dd284610d97565b610db7565b610d97565b9050919050565b6000610dee82610dc1565b9050919050565b6000610e0082610de3565b9050919050565b610e1081610df5565b82525050565b6000602082019050610e2b6000830184610e07565b92915050565b600080fd5b6000610e4182610d97565b9050919050565b610e5181610e36565b8114610e5c57600080fd5b50565b600081359050610e6e81610e48565b92915050565b600060208284031215610e8a57610e89610e31565b5b6000610e9884828501610e5f565b91505092915050565b6000819050919050565b610eb481610ea1565b82525050565b6000602082019050610ecf6000830184610eab565b92915050565b610ede81610ea1565b8114610ee957600080fd5b50565b600081359050610efb81610ed5565b92915050565b600060208284031215610f1757610f16610e31565b5b6000610f2584828501610eec565b91505092915050565b6000608082019050610f436000830187610eab565b610f506020830186610eab565b610f5d6040830185610eab565b610f6a6060830184610eab565b95945050505050565b610f7c81610e36565b82525050565b6000604082019050610f976000830185610f73565b610fa46020830184610f73565b9392505050565b6000606082019050610fc06000830186610eab565b610fcd6020830185610eab565b610fda6040830184610eab565b949350505050565b600082825260208201905092915050565b7f4e6f20616374697665206c6f616e000000000000000000000000000000000000600082015250565b6000611029600e83610fe2565b915061103482610ff3565b602082019050919050565b600060208201905081810360008301526110588161101c565b9050919050565b7f4e487b7100000000000000000000000000000000000000000000000000000000600052601160045260246000fd5b600061109982610ea1565b91506110a483610ea1565b92508282026110b281610ea1565b915082820484148315176110c9576110c861105f565b5b5092915050565b7f4e487b7100000000000000000000000000000000000000000000000000000000600052601260045260246000fd5b600061110a82610ea1565b915061111583610ea1565b925082611125576111246110d0565b5b828204905092915050565b600061113b82610ea1565b915061114683610ea1565b925082820190508082111561115e5761115d61105f565b5b92915050565b60006060820190506111796000830186610f73565b6111866020830185610f73565b6111936040830184610eab565b949350505050565b60008115159050919050565b6111b08161119b565b81146111bb57600080fd5b50565b6000815190506111cd816111a7565b92915050565b6000602082840312156111e9576111e8610e31565b5b60006111f7848285016111be565b91505092915050565b60006040820190506112156000830185610eab565b6112226020830184610eab565b9392505050565b600061123482610ea1565b915061123f83610ea1565b92508282039050818111156112575761125661105f565b5b92915050565b7f4d757374207265706179206c6f616e2066697273740000000000000000000000600082015250565b6000611293601583610fe2565b915061129e8261125d565b602082019050919050565b600060208201905081810360008301526112c281611286565b9050919050565b7f4e6f20636f6c6c61746572616c20746f20776974686472617700000000000000600082015250565b60006112ff601983610fe2565b915061130a826112c9565b602082019050919050565b6000602082019050818103600083015261132e816112f2565b9050919050565b600060408201905061134a6000830185610f73565b6113576020830184610eab565b9392505050565b7f416d6f756e74206d7573742062652067726561746572207468616e2030000000600082015250565b6000611394601d83610fe2565b915061139f8261135e565b602082019050919050565b600060208201905081810360008301526113c381611387565b9050919050565b7f45786365656473206d6178696d756d206c6f616e20616d6f756e740000000000600082015250565b6000611400601b83610fe2565b915061140b826113ca565b602082019050919050565b6000602082019050818103600083015261142f816113f3565b9050919050565b600060208201905061144b6000830184610f73565b92915050565b60008151905061146081610ed5565b92915050565b60006020828403121561147c5761147b610e31565b5b600061148a84828501611451565b91505092915050565b7f496e73756666696369656e74206c697175696469747900000000000000000000600082015250565b60006114c9601683610fe2565b91506114d482611493565b602082019050919050565b600060208201905081810360008301526114f8816114bc565b9050919050565b7f5265656e7472616e637947756172643a207265656e7472616e742063616c6c00600082015250565b6000611535601f83610fe2565b9150611540826114ff565b602082019050919050565b6000602082019050818103600083015261156481611528565b905091905056fea2646970667358221220bc283f8a34b76379f0383261632b69c8c2c261e699f4cafd32e2a0836c191d3f64736f6c63430008130033",
  "linkReferences": {},
  "deployedLinkReferences": {}
}