{"contracts/DeFiLending.sol":{"DeFiLending":{"abi":[{"inputs":[{"internalType":"address","name":"_collateral","type":"address"},{"internalType":"address","name":"_loan","type":"address"}],"stateMutability":"nonpayable","type":"constructor"},{"inputs":[{"internalType":"address","name":"owner","type":"address"}],"name":"OwnableInvalidOwner","type":"error"},{"inputs":[{"internalType":"address","name":"account","type":"address"}],"name":"OwnableUnauthorizedAccount","type":"error"},{"inputs":[],"name":"ReentrancyGuardReentrantCall","type":"error"},{"anonymous":false,"inputs":[{"indexed":true,"internalType":"address","name":"user","type":"address"},{"indexed":false,"internalType":"uint256","name":"amount","type":"uint256"}],"name":"CollateralAdded","type":"event"},{"anonymous":false,"inputs":[{"indexed":true,"internalType":"address","name":"user","type":"address"},{"indexed":false,"internalType":"uint256","name":"amount","type":"uint256"}],"name":"CollateralRemoved","type":"event"},{"anonymous":false,"inputs":[{"indexed":true,"internalType":"address","name":"user","type":"address"},{"indexed":false,"internalType":"uint256","name":"principal","type":"uint256"},{"indexed":false,"internalType":"uint256","name":"interest","type":"uint256"}],"name":"DebtRepaid","type":"event"},{"anonymous":false,"inputs":[{"indexed":true,"internalType":"address","name":"user","type":"address"},{"indexed":false,"internalType":"uint256","name":"amount","type":"uint256"}],"name":"LoanDrawn","type":"event"},{"anonymous":false,"inputs":[{"indexed":true,"internalType":"address","name":"previousOwner","type":"address"},{"indexed":true,"internalType":"address","name":"newOwner","type":"address"}],"name":"OwnershipTransferred","type":"event"},{"inputs":[],"name":"BASIS_POINTS","outputs":[{"internalType":"uint256","name":"","type":"uint256"}],"stateMutability":"view","type":"function"},{"inputs":[],"name":"MIN_COLLATERAL_RATIO","outputs":[{"internalType":"uint256","name":"","type":"uint256"}],"stateMutability":"view","type":"function"},{"inputs":[],"name":"WEEKLY_INTEREST_RATE","outputs":[{"internalType":"uint256","name":"","type":"uint256"}],"stateMutability":"view","type":"function"},{"inputs":[{"internalType":"uint256","name":"amount","type":"uint256"}],"name":"addCollateral","outputs":[],"stateMutability":"nonpayable","type":"function"},{"inputs":[],"name":"collateralToken","outputs":[{"internalType":"contract IERC20","name":"","type":"address"}],"stateMutability":"view","type":"function"},{"inputs":[{"internalType":"uint256","name":"amount","type":"uint256"}],"name":"drawLoan","outputs":[],"stateMutability":"nonpayable","type":"function"},{"inputs":[{"internalType":"address","name":"user","type":"address"}],"name":"fetchPosition","outputs":[{"internalType":"uint256","name":"collateral","type":"uint256"},{"internalType":"uint256","name":"debt","type":"uint256"},{"internalType":"uint256","name":"interest","type":"uint256"}],"stateMutability":"view","type":"function"},{"inputs":[],"name":"loanToken","outputs":[{"internalType":"contract IERC20","name":"","type":"address"}],"stateMutability":"view","type":"function"},{"inputs":[],"name":"owner","outputs":[{"internalType":"address","name":"","type":"address"}],"stateMutability":"view","type":"function"},{"inputs":[{"internalType":"address","name":"tokenAddress","type":"address"},{"internalType":"uint256","name":"amount","type":"uint256"}],"name":"recoverERC20","outputs":[],"stateMutability":"nonpayable","type":"function"},{"inputs":[{"internalType":"uint256","name":"amount","type":"uint256"}],"name":"removeCollateral","outputs":[],"stateMutability":"nonpayable","type":"function"},{"inputs":[],"name":"renounceOwnership","outputs":[],"stateMutability":"nonpayable","type":"function"},{"inputs":[],"name":"repayDebt","outputs":[],"stateMutability":"nonpayable","type":"function"},{"inputs":[{"internalType":"address","name":"newOwner","type":"address"}],"name":"transferOwnership","outputs":[],"stateMutability":"nonpayable","type":"function"}],"evm":{"bytecode":{"linkReferences":{},"object":"60c060405234801561001057600080fd5b50604051610f8b380380610f8b83398101604081905261002f916100e6565b338061005557604051631e4fbdf760e01b81526000600482015260240160405180910390fd5b61005e8161007a565b50600180556001600160a01b039182166080521660a052610119565b600080546001600160a01b038381166001600160a01b0319831681178455604051919092169283917f8be0079c531659141344cd1fd0a4f28419497f9722a3daafe3b4186f6b6457e09190a35050565b80516001600160a01b03811681146100e157600080fd5b919050565b600080604083850312156100f957600080fd5b610102836100ca565b9150610110602084016100ca565b90509250929050565b60805160a051610e326101596000396000818160f4015281816102d6015261072d0152600081816101b4015281816104fe01526109390152610e326000f3fe608060405234801561001057600080fd5b50600436106100ea5760003560e01c80638980f11f1161008c578063bcc46e8311610066578063bcc46e83146101d6578063e17e8527146101e9578063e1f1c4a714610217578063f2fde38b1461022057600080fd5b80638980f11f1461018b5780638da5cb5b1461019e578063b2016bd4146101af57600080fd5b806341c379c9116100c857806341c379c91461015057806352a8d63e14610163578063715018a61461017a5780637a9fffb71461018257600080fd5b806306d37817146100ef5780631b99d9d6146101335780633237c1581461013d575b600080fd5b6101167f000000000000000000000000000000000000000000000000000000000000000081565b6040516001600160a01b0390911681526020015b60405180910390f35b61013b610233565b005b61013b61014b366004610cb9565b6103e8565b61013b61015e366004610cb9565b6105f4565b61016c6101f481565b60405190815260200161012a565b61013b610825565b61016c613a9881565b61013b610199366004610cee565b610837565b6000546001600160a01b0316610116565b6101167f000000000000000000000000000000000000000000000000000000000000000081565b61013b6101e4366004610cb9565b6108d6565b6101fc6101f7366004610d18565b610a37565b6040805193845260208401929092529082015260600161012a565b61016c61271081565b61013b61022e366004610d18565b610aec565b61023b610b27565b3360008181526002602052604090209061025490610b51565b60008160030154826001015461026a9190610d50565b9050600081116102b45760405162461bcd60e51b815260206004820152601060248201526f4e6f7468696e6720746f20726570617960801b60448201526064015b60405180910390fd5b6040516323b872dd60e01b8152336004820152306024820152604481018290527f00000000000000000000000000000000000000000000000000000000000000006001600160a01b0316906323b872dd906064016020604051808303816000875af1158015610327573d6000803e3d6000fd5b505050506040513d601f19601f8201168201806040525081019061034b9190610d69565b6103865760405162461bcd60e51b815260206004820152600c60248201526b14995c185e4819985a5b195960a21b60448201526064016102ab565b600182018054600384018054600093849055929055604080518281526020810184905291929133917f798353030d4251a345706609acf9ea7527f2ace26f73150a098c0fae89e5886d910160405180910390a2505050506103e660018055565b565b6103f0610b27565b600081116104105760405162461bcd60e51b81526004016102ab90610d8b565b3360008181526002602052604090209061042990610b51565b8060030154816001015461043d9190610d50565b156104785760405162461bcd60e51b815260206004820152600b60248201526a446562742065786973747360a81b60448201526064016102ab565b80548211156104c95760405162461bcd60e51b815260206004820152601760248201527f496e73756666696369656e7420636f6c6c61746572616c00000000000000000060448201526064016102ab565b818160000160008282546104dd9190610db0565b909155505060405163a9059cbb60e01b8152336004820152602481018390527f00000000000000000000000000000000000000000000000000000000000000006001600160a01b03169063a9059cbb906044016020604051808303816000875af115801561054f573d6000803e3d6000fd5b505050506040513d601f19601f820116820180604052508101906105739190610d69565b6105b15760405162461bcd60e51b815260206004820152600f60248201526e15da5d1a191c985dc819985a5b1959608a1b60448201526064016102ab565b60405182815233907f12c7466676da8453fdc8fb091f1a24d31919043a79a50ebe022867a5f5c1ed34906020015b60405180910390a2506105f160018055565b50565b6105fc610b27565b6000811161061c5760405162461bcd60e51b81526004016102ab90610d8b565b33600090815260026020526040902080546106695760405162461bcd60e51b815260206004820152600d60248201526c139bc818dbdb1b185d195c985b609a1b60448201526064016102ab565b61067233610b51565b6000613a9861271083600001546106899190610dc3565b6106939190610dda565b90508083836003015484600101546106ab9190610d50565b6106b59190610d50565b11156106f85760405162461bcd60e51b815260206004820152601260248201527145786365656473206d617820626f72726f7760701b60448201526064016102ab565b8282600101600082825461070c9190610d50565b909155505060405163a9059cbb60e01b8152336004820152602481018490527f00000000000000000000000000000000000000000000000000000000000000006001600160a01b03169063a9059cbb906044016020604051808303816000875af115801561077e573d6000803e3d6000fd5b505050506040513d601f19601f820116820180604052508101906107a29190610d69565b6107e55760405162461bcd60e51b8152602060048201526014602482015273131bd85b881d1c985b9cd9995c8819985a5b195960621b60448201526064016102ab565b60405183815233907f222d6d4e07f1a384317b1ac9d686129bac3d55dc4aed52e94263106602c5ce609060200160405180910390a250506105f160018055565b61082d610c3c565b6103e66000610c69565b61083f610c3c565b816001600160a01b031663a9059cbb6108606000546001600160a01b031690565b6040516001600160e01b031960e084901b1681526001600160a01b039091166004820152602481018490526044016020604051808303816000875af11580156108ad573d6000803e3d6000fd5b505050506040513d601f19601f820116820180604052508101906108d19190610d69565b505050565b6108de610b27565b600081116108fe5760405162461bcd60e51b81526004016102ab90610d8b565b3360008181526002602052604090209061091790610b51565b6040516323b872dd60e01b8152336004820152306024820152604481018390527f00000000000000000000000000000000000000000000000000000000000000006001600160a01b0316906323b872dd906064016020604051808303816000875af115801561098a573d6000803e3d6000fd5b505050506040513d601f19601f820116820180604052508101906109ae9190610d69565b6109ec5760405162461bcd60e51b815260206004820152600f60248201526e151c985b9cd9995c8819985a5b1959608a1b60448201526064016102ab565b81816000016000828254610a009190610d50565b909155505060405182815233907f7dba1be544024070cd5eebfa8bdd80a8b198cea8058c7d3cc1f8dd36e41ab2f7906020016105df565b6001600160a01b038116600090815260026020819052604082209081015482918291829015801590610a6d575060008260010154115b15610ac6576000826002015442610a849190610db0565b90506000610a9562093a8083610dda565b9050612710816101f48660010154610aad9190610dc3565b610ab79190610dc3565b610ac19190610dda565b925050505b815460018301546003840154610add908490610d50565b94509450945050509193909250565b610af4610c3c565b6001600160a01b038116610b1e57604051631e4fbdf760e01b8152600060048201526024016102ab565b6105f181610c69565b600260015403610b4a57604051633ee5aeb560e01b815260040160405180910390fd5b6002600155565b6001600160a01b0381166000908152600260208190526040822090810154909103610b80574260029091015550565b6000816002015442610b929190610db0565b905062093a80811080610ba757506001820154155b15610bb757504260029091015550565b6000610bc662093a8083610dda565b90506000612710826101f48660010154610be09190610dc3565b610bea9190610dc3565b610bf49190610dda565b905080846003016000828254610c0a9190610d50565b90915550610c1d90508262093a80610dc3565b846002016000828254610c309190610d50565b90915550505050505050565b6000546001600160a01b031633146103e65760405163118cdaa760e01b81523360048201526024016102ab565b600080546001600160a01b038381166001600160a01b0319831681178455604051919092169283917f8be0079c531659141344cd1fd0a4f28419497f9722a3daafe3b4186f6b6457e09190a35050565b600060208284031215610ccb57600080fd5b5035919050565b80356001600160a01b0381168114610ce957600080fd5b919050565b60008060408385031215610d0157600080fd5b610d0a83610cd2565b946020939093013593505050565b600060208284031215610d2a57600080fd5b610d3382610cd2565b9392505050565b634e487b7160e01b600052601160045260246000fd5b80820180821115610d6357610d63610d3a565b92915050565b600060208284031215610d7b57600080fd5b81518015158114610d3357600080fd5b6020808252600b908201526a16995c9bc8185b5bdd5b9d60aa1b604082015260600190565b81810381811115610d6357610d63610d3a565b8082028115828204841417610d6357610d63610d3a565b600082610df757634e487b7160e01b600052601260045260246000fd5b50049056fea26469706673582212202268eb05ba1c79dc39c32424ed0e69ae8706a6d2a32b0c7cd88ede308463cbb564736f6c634300081c0033","opcodes":"PUSH1 0xC0 PUSH1 0x40 MSTORE CALLVALUE DUP1 ISZERO PUSH2 0x10 JUMPI PUSH1 0x0 DUP1 REVERT JUMPDEST POP PUSH1 0x40 MLOAD PUSH2 0xF8B CODESIZE SUB DUP1 PUSH2 0xF8B DUP4 CODECOPY DUP2 ADD PUSH1 0x40 DUP2 SWAP1 MSTORE PUSH2 0x2F SWAP2 PUSH2 0xE6 JUMP JUMPDEST CALLER DUP1 PUSH2 0x55 JUMPI PUSH1 0x40 MLOAD PUSH4 0x1E4FBDF7 PUSH1 0xE0 SHL DUP2 MSTORE PUSH1 0x0 PUSH1 0x4 DUP3 ADD MSTORE PUSH1 0x24 ADD PUSH1 0x40 MLOAD DUP1 SWAP2 SUB SWAP1 REVERT JUMPDEST PUSH2 0x5E DUP2 PUSH2 0x7A JUMP JUMPDEST POP PUSH1 0x1 DUP1 SSTORE PUSH1 0x1 PUSH1 0x1 PUSH1 0xA0 SHL SUB SWAP2 DUP3 AND PUSH1 0x80 MSTORE AND PUSH1 0xA0 MSTORE PUSH2 0x119 JUMP JUMPDEST PUSH1 0x0 DUP1 SLOAD PUSH1 0x1 PUSH1 0x1 PUSH1 0xA0 SHL SUB DUP4 DUP2 AND PUSH1 0x1 PUSH1 0x1 PUSH1 0xA0 SHL SUB NOT DUP4 AND DUP2 OR DUP5 SSTORE PUSH1 0x40 MLOAD SWAP2 SWAP1 SWAP3 AND SWAP3 DUP4 SWAP2 PUSH32 0x8BE0079C531659141344CD1FD0A4F28419497F9722A3DAAFE3B4186F6B6457E0 SWAP2 SWAP1 LOG3 POP POP JUMP JUMPDEST DUP1 MLOAD PUSH1 0x1 PUSH1 0x1 PUSH1 0xA0 SHL SUB DUP2 AND DUP2 EQ PUSH2 0xE1 JUMPI PUSH1 0x0 DUP1 REVERT JUMPDEST SWAP2 SWAP1 POP JUMP JUMPDEST PUSH1 0x0 DUP1 PUSH1 0x40 DUP4 DUP6 SUB SLT ISZERO PUSH2 0xF9 JUMPI PUSH1 0x0 DUP1 REVERT JUMPDEST PUSH2 0x102 DUP4 PUSH2 0xCA JUMP JUMPDEST SWAP2 POP PUSH2 0x110 PUSH1 0x20 DUP5 ADD PUSH2 0xCA JUMP JUMPDEST SWAP1 POP SWAP3 POP SWAP3 SWAP1 POP JUMP JUMPDEST PUSH1 0x80 MLOAD PUSH1 0xA0 MLOAD PUSH2 0xE32 PUSH2 0x159 PUSH1 0x0 CODECOPY PUSH1 0x0 DUP2 DUP2 PUSH1 0xF4 ADD MSTORE DUP2 DUP2 PUSH2 0x2D6 ADD MSTORE PUSH2 0x72D ADD MSTORE PUSH1 0x0 DUP2 DUP2 PUSH2 0x1B4 ADD MSTORE DUP2 DUP2 PUSH2 0x4FE ADD MSTORE PUSH2 0x939 ADD MSTORE PUSH2 0xE32 PUSH1 0x0 RETURN INVALID PUSH1 0x80 PUSH1 0x40 MSTORE CALLVALUE DUP1 ISZERO PUSH2 0x10 JUMPI PUSH1 0x0 DUP1 REVERT JUMPDEST POP PUSH1 0x4 CALLDATASIZE LT PUSH2 0xEA JUMPI PUSH1 0x0 CALLDATALOAD PUSH1 0xE0 SHR DUP1 PUSH4 0x8980F11F GT PUSH2 0x8C JUMPI DUP1 PUSH4 0xBCC46E83 GT PUSH2 0x66 JUMPI DUP1 PUSH4 0xBCC46E83 EQ PUSH2 0x1D6 JUMPI DUP1 PUSH4 0xE17E8527 EQ PUSH2 0x1E9 JUMPI DUP1 PUSH4 0xE1F1C4A7 EQ PUSH2 0x217 JUMPI DUP1 PUSH4 0xF2FDE38B EQ PUSH2 0x220 JUMPI PUSH1 0x0 DUP1 REVERT JUMPDEST DUP1 PUSH4 0x8980F11F EQ PUSH2 0x18B JUMPI DUP1 PUSH4 0x8DA5CB5B EQ PUSH2 0x19E JUMPI DUP1 PUSH4 0xB2016BD4 EQ PUSH2 0x1AF JUMPI PUSH1 0x0 DUP1 REVERT JUMPDEST DUP1 PUSH4 0x41C379C9 GT PUSH2 0xC8 JUMPI DUP1 PUSH4 0x41C379C9 EQ PUSH2 0x150 JUMPI DUP1 PUSH4 0x52A8D63E EQ PUSH2 0x163 JUMPI DUP1 PUSH4 0x715018A6 EQ PUSH2 0x17A JUMPI DUP1 PUSH4 0x7A9FFFB7 EQ PUSH2 0x182 JUMPI PUSH1 0x0 DUP1 REVERT JUMPDEST DUP1 PUSH4 0x6D37817 EQ PUSH2 0xEF JUMPI DUP1 PUSH4 0x1B99D9D6 EQ PUSH2 0x133 JUMPI DUP1 PUSH4 0x3237C158 EQ PUSH2 0x13D JUMPI JUMPDEST PUSH1 0x0 DUP1 REVERT JUMPDEST PUSH2 0x116 PUSH32 0x0 DUP2 JUMP JUMPDEST PUSH1 0x40 MLOAD PUSH1 0x1 PUSH1 0x1 PUSH1 0xA0 SHL SUB SWAP1 SWAP2 AND DUP2 MSTORE PUSH1 0x20 ADD JUMPDEST PUSH1 0x40 MLOAD DUP1 SWAP2 SUB SWAP1 RETURN JUMPDEST PUSH2 0x13B PUSH2 0x233 JUMP JUMPDEST STOP JUMPDEST PUSH2 0x13B PUSH2 0x14B CALLDATASIZE PUSH1 0x4 PUSH2 0xCB9 JUMP JUMPDEST PUSH2 0x3E8 JUMP JUMPDEST PUSH2 0x13B PUSH2 0x15E CALLDATASIZE PUSH1 0x4 PUSH2 0xCB9 JUMP JUMPDEST PUSH2 0x5F4 JUMP JUMPDEST PUSH2 0x16C PUSH2 0x1F4 DUP2 JUMP JUMPDEST PUSH1 0x40 MLOAD SWAP1 DUP2 MSTORE PUSH1 0x20 ADD PUSH2 0x12A JUMP JUMPDEST PUSH2 0x13B PUSH2 0x825 JUMP JUMPDEST PUSH2 0x16C PUSH2 0x3A98 DUP2 JUMP JUMPDEST PUSH2 0x13B PUSH2 0x199 CALLDATASIZE PUSH1 0x4 PUSH2 0xCEE JUMP JUMPDEST PUSH2 0x837 JUMP JUMPDEST PUSH1 0x0 SLOAD PUSH1 0x1 PUSH1 0x1 PUSH1 0xA0 SHL SUB AND PUSH2 0x116 JUMP JUMPDEST PUSH2 0x116 PUSH32 0x0 DUP2 JUMP JUMPDEST PUSH2 0x13B PUSH2 0x1E4 CALLDATASIZE PUSH1 0x4 PUSH2 0xCB9 JUMP JUMPDEST PUSH2 0x8D6 JUMP JUMPDEST PUSH2 0x1FC PUSH2 0x1F7 CALLDATASIZE PUSH1 0x4 PUSH2 0xD18 JUMP JUMPDEST PUSH2 0xA37 JUMP JUMPDEST PUSH1 0x40 DUP1 MLOAD SWAP4 DUP5 MSTORE PUSH1 0x20 DUP5 ADD SWAP3 SWAP1 SWAP3 MSTORE SWAP1 DUP3 ADD MSTORE PUSH1 0x60 ADD PUSH2 0x12A JUMP JUMPDEST PUSH2 0x16C PUSH2 0x2710 DUP2 JUMP JUMPDEST PUSH2 0x13B PUSH2 0x22E CALLDATASIZE PUSH1 0x4 PUSH2 0xD18 JUMP JUMPDEST PUSH2 0xAEC JUMP JUMPDEST PUSH2 0x23B PUSH2 0xB27 JUMP JUMPDEST CALLER PUSH1 0x0 DUP2 DUP2 MSTORE PUSH1 0x2 PUSH1 0x20 MSTORE PUSH1 0x40 SWAP1 KECCAK256 SWAP1 PUSH2 0x254 SWAP1 PUSH2 0xB51 JUMP JUMPDEST PUSH1 0x0 DUP2 PUSH1 0x3 ADD SLOAD DUP3 PUSH1 0x1 ADD SLOAD PUSH2 0x26A SWAP2 SWAP1 PUSH2 0xD50 JUMP JUMPDEST SWAP1 POP PUSH1 0x0 DUP2 GT PUSH2 0x2B4 JUMPI PUSH1 0x40 MLOAD PUSH3 0x461BCD PUSH1 0xE5 SHL DUP2 MSTORE PUSH1 0x20 PUSH1 0x4 DUP3 ADD MSTORE PUSH1 0x10 PUSH1 0x24 DUP3 ADD MSTORE PUSH16 0x4E6F7468696E6720746F207265706179 PUSH1 0x80 SHL PUSH1 0x44 DUP3 ADD MSTORE PUSH1 0x64 ADD JUMPDEST PUSH1 0x40 MLOAD DUP1 SWAP2 SUB SWAP1 REVERT JUMPDEST PUSH1 0x40 MLOAD PUSH4 0x23B872DD PUSH1 0xE0 SHL DUP2 MSTORE CALLER PUSH1 0x4 DUP3 ADD MSTORE ADDRESS PUSH1 0x24 DUP3 ADD MSTORE PUSH1 0x44 DUP2 ADD DUP3 SWAP1 MSTORE PUSH32 0x0 PUSH1 0x1 PUSH1 0x1 PUSH1 0xA0 SHL SUB AND SWAP1 PUSH4 0x23B872DD SWAP1 PUSH1 0x64 ADD PUSH1 0x20 PUSH1 0x40 MLOAD DUP1 DUP4 SUB DUP2 PUSH1 0x0 DUP8 GAS CALL ISZERO DUP1 ISZERO PUSH2 0x327 JUMPI RETURNDATASIZE PUSH1 0x0 DUP1 RETURNDATACOPY RETURNDATASIZE PUSH1 0x0 REVERT JUMPDEST POP POP POP POP PUSH1 0x40 MLOAD RETURNDATASIZE PUSH1 0x1F NOT PUSH1 0x1F DUP3 ADD AND DUP3 ADD DUP1 PUSH1 0x40 MSTORE POP DUP2 ADD SWAP1 PUSH2 0x34B SWAP2 SWAP1 PUSH2 0xD69 JUMP JUMPDEST PUSH2 0x386 JUMPI PUSH1 0x40 MLOAD PUSH3 0x461BCD PUSH1 0xE5 SHL DUP2 MSTORE PUSH1 0x20 PUSH1 0x4 DUP3 ADD MSTORE PUSH1 0xC PUSH1 0x24 DUP3 ADD MSTORE PUSH12 0x14995C185E4819985A5B1959 PUSH1 0xA2 SHL PUSH1 0x44 DUP3 ADD MSTORE PUSH1 0x64 ADD PUSH2 0x2AB JUMP JUMPDEST PUSH1 0x1 DUP3 ADD DUP1 SLOAD PUSH1 0x3 DUP5 ADD DUP1 SLOAD PUSH1 0x0 SWAP4 DUP5 SWAP1 SSTORE SWAP3 SWAP1 SSTORE PUSH1 0x40 DUP1 MLOAD DUP3 DUP2 MSTORE PUSH1 0x20 DUP2 ADD DUP5 SWAP1 MSTORE SWAP2 SWAP3 SWAP2 CALLER SWAP2 PUSH32 0x798353030D4251A345706609ACF9EA7527F2ACE26F73150A098C0FAE89E5886D SWAP2 ADD PUSH1 0x40 MLOAD DUP1 SWAP2 SUB SWAP1 LOG2 POP POP POP POP PUSH2 0x3E6 PUSH1 0x1 DUP1 SSTORE JUMP JUMPDEST JUMP JUMPDEST PUSH2 0x3F0 PUSH2 0xB27 JUMP JUMPDEST PUSH1 0x0 DUP2 GT PUSH2 0x410 JUMPI PUSH1 0x40 MLOAD PUSH3 0x461BCD PUSH1 0xE5 SHL DUP2 MSTORE PUSH1 0x4 ADD PUSH2 0x2AB SWAP1 PUSH2 0xD8B JUMP JUMPDEST CALLER PUSH1 0x0 DUP2 DUP2 MSTORE PUSH1 0x2 PUSH1 0x20 MSTORE PUSH1 0x40 SWAP1 KECCAK256 SWAP1 PUSH2 0x429 SWAP1 PUSH2 0xB51 JUMP JUMPDEST DUP1 PUSH1 0x3 ADD SLOAD DUP2 PUSH1 0x1 ADD SLOAD PUSH2 0x43D SWAP2 SWAP1 PUSH2 0xD50 JUMP JUMPDEST ISZERO PUSH2 0x478 JUMPI PUSH1 0x40 MLOAD PUSH3 0x461BCD PUSH1 0xE5 SHL DUP2 MSTORE PUSH1 0x20 PUSH1 0x4 DUP3 ADD MSTORE PUSH1 0xB PUSH1 0x24 DUP3 ADD MSTORE PUSH11 0x4465627420657869737473 PUSH1 0xA8 SHL PUSH1 0x44 DUP3 ADD MSTORE PUSH1 0x64 ADD PUSH2 0x2AB JUMP JUMPDEST DUP1 SLOAD DUP3 GT ISZERO PUSH2 0x4C9 JUMPI PUSH1 0x40 MLOAD PUSH3 0x461BCD PUSH1 0xE5 SHL DUP2 MSTORE PUSH1 0x20 PUSH1 0x4 DUP3 ADD MSTORE PUSH1 0x17 PUSH1 0x24 DUP3 ADD MSTORE PUSH32 0x496E73756666696369656E7420636F6C6C61746572616C000000000000000000 PUSH1 0x44 DUP3 ADD MSTORE PUSH1 0x64 ADD PUSH2 0x2AB JUMP JUMPDEST DUP2 DUP2 PUSH1 0x0 ADD PUSH1 0x0 DUP3 DUP3 SLOAD PUSH2 0x4DD SWAP2 SWAP1 PUSH2 0xDB0 JUMP JUMPDEST SWAP1 SWAP2 SSTORE POP POP PUSH1 0x40 MLOAD PUSH4 0xA9059CBB PUSH1 0xE0 SHL DUP2 MSTORE CALLER PUSH1 0x4 DUP3 ADD MSTORE PUSH1 0x24 DUP2 ADD DUP4 SWAP1 MSTORE PUSH32 0x0 PUSH1 0x1 PUSH1 0x1 PUSH1 0xA0 SHL SUB AND SWAP1 PUSH4 0xA9059CBB SWAP1 PUSH1 0x44 ADD PUSH1 0x20 PUSH1 0x40 MLOAD DUP1 DUP4 SUB DUP2 PUSH1 0x0 DUP8 GAS CALL ISZERO DUP1 ISZERO PUSH2 0x54F JUMPI RETURNDATASIZE PUSH1 0x0 DUP1 RETURNDATACOPY RETURNDATASIZE PUSH1 0x0 REVERT JUMPDEST POP POP POP POP PUSH1 0x40 MLOAD RETURNDATASIZE PUSH1 0x1F NOT PUSH1 0x1F DUP3 ADD AND DUP3 ADD DUP1 PUSH1 0x40 MSTORE POP DUP2 ADD SWAP1 PUSH2 0x573 SWAP2 SWAP1 PUSH2 0xD69 JUMP JUMPDEST PUSH2 0x5B1 JUMPI PUSH1 0x40 MLOAD PUSH3 0x461BCD PUSH1 0xE5 SHL DUP2 MSTORE PUSH1 0x20 PUSH1 0x4 DUP3 ADD MSTORE PUSH1 0xF PUSH1 0x24 DUP3 ADD MSTORE PUSH15 0x15DA5D1A191C985DC819985A5B1959 PUSH1 0x8A SHL PUSH1 0x44 DUP3 ADD MSTORE PUSH1 0x64 ADD PUSH2 0x2AB JUMP JUMPDEST PUSH1 0x40 MLOAD DUP3 DUP2 MSTORE CALLER SWAP1 PUSH32 0x12C7466676DA8453FDC8FB091F1A24D31919043A79A50EBE022867A5F5C1ED34 SWAP1 PUSH1 0x20 ADD JUMPDEST PUSH1 0x40 MLOAD DUP1 SWAP2 SUB SWAP1 LOG2 POP PUSH2 0x5F1 PUSH1 0x1 DUP1 SSTORE JUMP JUMPDEST POP JUMP JUMPDEST PUSH2 0x5FC PUSH2 0xB27 JUMP JUMPDEST PUSH1 0x0 DUP2 GT PUSH2 0x61C JUMPI PUSH1 0x40 MLOAD PUSH3 0x461BCD PUSH1 0xE5 SHL DUP2 MSTORE PUSH1 0x4 ADD PUSH2 0x2AB SWAP1 PUSH2 0xD8B JUMP JUMPDEST CALLER PUSH1 0x0 SWAP1 DUP2 MSTORE PUSH1 0x2 PUSH1 0x20 MSTORE PUSH1 0x40 SWAP1 KECCAK256 DUP1 SLOAD PUSH2 0x669 JUMPI PUSH1 0x40 MLOAD PUSH3 0x461BCD PUSH1 0xE5 SHL DUP2 MSTORE PUSH1 0x20 PUSH1 0x4 DUP3 ADD MSTORE PUSH1 0xD PUSH1 0x24 DUP3 ADD MSTORE PUSH13 0x139BC818DBDB1B185D195C985B PUSH1 0x9A SHL PUSH1 0x44 DUP3 ADD MSTORE PUSH1 0x64 ADD PUSH2 0x2AB JUMP JUMPDEST PUSH2 0x672 CALLER PUSH2 0xB51 JUMP JUMPDEST PUSH1 0x0 PUSH2 0x3A98 PUSH2 0x2710 DUP4 PUSH1 0x0 ADD SLOAD PUSH2 0x689 SWAP2 SWAP1 PUSH2 0xDC3 JUMP JUMPDEST PUSH2 0x693 SWAP2 SWAP1 PUSH2 0xDDA JUMP JUMPDEST SWAP1 POP DUP1 DUP4 DUP4 PUSH1 0x3 ADD SLOAD DUP5 PUSH1 0x1 ADD SLOAD PUSH2 0x6AB SWAP2 SWAP1 PUSH2 0xD50 JUMP JUMPDEST PUSH2 0x6B5 SWAP2 SWAP1 PUSH2 0xD50 JUMP JUMPDEST GT ISZERO PUSH2 0x6F8 JUMPI PUSH1 0x40 MLOAD PUSH3 0x461BCD PUSH1 0xE5 SHL DUP2 MSTORE PUSH1 0x20 PUSH1 0x4 DUP3 ADD MSTORE PUSH1 0x12 PUSH1 0x24 DUP3 ADD MSTORE PUSH18 0x45786365656473206D617820626F72726F77 PUSH1 0x70 SHL PUSH1 0x44 DUP3 ADD MSTORE PUSH1 0x64 ADD PUSH2 0x2AB JUMP JUMPDEST DUP3 DUP3 PUSH1 0x1 ADD PUSH1 0x0 DUP3 DUP3 SLOAD PUSH2 0x70C SWAP2 SWAP1 PUSH2 0xD50 JUMP JUMPDEST SWAP1 SWAP2 SSTORE POP POP PUSH1 0x40 MLOAD PUSH4 0xA9059CBB PUSH1 0xE0 SHL DUP2 MSTORE CALLER PUSH1 0x4 DUP3 ADD MSTORE PUSH1 0x24 DUP2 ADD DUP5 SWAP1 MSTORE PUSH32 0x0 PUSH1 0x1 PUSH1 0x1 PUSH1 0xA0 SHL SUB AND SWAP1 PUSH4 0xA9059CBB SWAP1 PUSH1 0x44 ADD PUSH1 0x20 PUSH1 0x40 MLOAD DUP1 DUP4 SUB DUP2 PUSH1 0x0 DUP8 GAS CALL ISZERO DUP1 ISZERO PUSH2 0x77E JUMPI RETURNDATASIZE PUSH1 0x0 DUP1 RETURNDATACOPY RETURNDATASIZE PUSH1 0x0 REVERT JUMPDEST POP POP POP POP PUSH1 0x40 MLOAD RETURNDATASIZE PUSH1 0x1F NOT PUSH1 0x1F DUP3 ADD AND DUP3 ADD DUP1 PUSH1 0x40 MSTORE POP DUP2 ADD SWAP1 PUSH2 0x7A2 SWAP2 SWAP1 PUSH2 0xD69 JUMP JUMPDEST PUSH2 0x7E5 JUMPI PUSH1 0x40 MLOAD PUSH3 0x461BCD PUSH1 0xE5 SHL DUP2 MSTORE PUSH1 0x20 PUSH1 0x4 DUP3 ADD MSTORE PUSH1 0x14 PUSH1 0x24 DUP3 ADD MSTORE PUSH20 0x131BD85B881D1C985B9CD9995C8819985A5B1959 PUSH1 0x62 SHL PUSH1 0x44 DUP3 ADD MSTORE PUSH1 0x64 ADD PUSH2 0x2AB JUMP JUMPDEST PUSH1 0x40 MLOAD DUP4 DUP2 MSTORE CALLER SWAP1 PUSH32 0x222D6D4E07F1A384317B1AC9D686129BAC3D55DC4AED52E94263106602C5CE60 SWAP1 PUSH1 0x20 ADD PUSH1 0x40 MLOAD DUP1 SWAP2 SUB SWAP1 LOG2 POP POP PUSH2 0x5F1 PUSH1 0x1 DUP1 SSTORE JUMP JUMPDEST PUSH2 0x82D PUSH2 0xC3C JUMP JUMPDEST PUSH2 0x3E6 PUSH1 0x0 PUSH2 0xC69 JUMP JUMPDEST PUSH2 0x83F PUSH2 0xC3C JUMP JUMPDEST DUP2 PUSH1 0x1 PUSH1 0x1 PUSH1 0xA0 SHL SUB AND PUSH4 0xA9059CBB PUSH2 0x860 PUSH1 0x0 SLOAD PUSH1 0x1 PUSH1 0x1 PUSH1 0xA0 SHL SUB AND SWAP1 JUMP JUMPDEST PUSH1 0x40 MLOAD PUSH1 0x1 PUSH1 0x1 PUSH1 0xE0 SHL SUB NOT PUSH1 0xE0 DUP5 SWAP1 SHL AND DUP2 MSTORE PUSH1 0x1 PUSH1 0x1 PUSH1 0xA0 SHL SUB SWAP1 SWAP2 AND PUSH1 0x4 DUP3 ADD MSTORE PUSH1 0x24 DUP2 ADD DUP5 SWAP1 MSTORE PUSH1 0x44 ADD PUSH1 0x20 PUSH1 0x40 MLOAD DUP1 DUP4 SUB DUP2 PUSH1 0x0 DUP8 GAS CALL ISZERO DUP1 ISZERO PUSH2 0x8AD JUMPI RETURNDATASIZE PUSH1 0x0 DUP1 RETURNDATACOPY RETURNDATASIZE PUSH1 0x0 REVERT JUMPDEST POP POP POP POP PUSH1 0x40 MLOAD RETURNDATASIZE PUSH1 0x1F NOT PUSH1 0x1F DUP3 ADD AND DUP3 ADD DUP1 PUSH1 0x40 MSTORE POP DUP2 ADD SWAP1 PUSH2 0x8D1 SWAP2 SWAP1 PUSH2 0xD69 JUMP JUMPDEST POP POP POP JUMP JUMPDEST PUSH2 0x8DE PUSH2 0xB27 JUMP JUMPDEST PUSH1 0x0 DUP2 GT PUSH2 0x8FE JUMPI PUSH1 0x40 MLOAD PUSH3 0x461BCD PUSH1 0xE5 SHL DUP2 MSTORE PUSH1 0x4 ADD PUSH2 0x2AB SWAP1 PUSH2 0xD8B JUMP JUMPDEST CALLER PUSH1 0x0 DUP2 DUP2 MSTORE PUSH1 0x2 PUSH1 0x20 MSTORE PUSH1 0x40 SWAP1 KECCAK256 SWAP1 PUSH2 0x917 SWAP1 PUSH2 0xB51 JUMP JUMPDEST PUSH1 0x40 MLOAD PUSH4 0x23B872DD PUSH1 0xE0 SHL DUP2 MSTORE CALLER PUSH1 0x4 DUP3 ADD MSTORE ADDRESS PUSH1 0x24 DUP3 ADD MSTORE PUSH1 0x44 DUP2 ADD DUP4 SWAP1 MSTORE PUSH32 0x0 PUSH1 0x1 PUSH1 0x1 PUSH1 0xA0 SHL SUB AND SWAP1 PUSH4 0x23B872DD SWAP1 PUSH1 0x64 ADD PUSH1 0x20 PUSH1 0x40 MLOAD DUP1 DUP4 SUB DUP2 PUSH1 0x0 DUP8 GAS CALL ISZERO DUP1 ISZERO PUSH2 0x98A JUMPI RETURNDATASIZE PUSH1 0x0 DUP1 RETURNDATACOPY RETURNDATASIZE PUSH1 0x0 REVERT JUMPDEST POP POP POP POP PUSH1 0x40 MLOAD RETURNDATASIZE PUSH1 0x1F NOT PUSH1 0x1F DUP3 ADD AND DUP3 ADD DUP1 PUSH1 0x40 MSTORE POP DUP2 ADD SWAP1 PUSH2 0x9AE SWAP2 SWAP1 PUSH2 0xD69 JUMP JUMPDEST PUSH2 0x9EC JUMPI PUSH1 0x40 MLOAD PUSH3 0x461BCD PUSH1 0xE5 SHL DUP2 MSTORE PUSH1 0x20 PUSH1 0x4 DUP3 ADD MSTORE PUSH1 0xF PUSH1 0x24 DUP3 ADD MSTORE PUSH15 0x151C985B9CD9995C8819985A5B1959 PUSH1 0x8A SHL PUSH1 0x44 DUP3 ADD MSTORE PUSH1 0x64 ADD PUSH2 0x2AB JUMP JUMPDEST DUP2 DUP2 PUSH1 0x0 ADD PUSH1 0x0 DUP3 DUP3 SLOAD PUSH2 0xA00 SWAP2 SWAP1 PUSH2 0xD50 JUMP JUMPDEST SWAP1 SWAP2 SSTORE POP POP PUSH1 0x40 MLOAD DUP3 DUP2 MSTORE CALLER SWAP1 PUSH32 0x7DBA1BE544024070CD5EEBFA8BDD80A8B198CEA8058C7D3CC1F8DD36E41AB2F7 SWAP1 PUSH1 0x20 ADD PUSH2 0x5DF JUMP JUMPDEST PUSH1 0x1 PUSH1 0x1 PUSH1 0xA0 SHL SUB DUP2 AND PUSH1 0x0 SWAP1 DUP2 MSTORE PUSH1 0x2 PUSH1 0x20 DUP2 SWAP1 MSTORE PUSH1 0x40 DUP3 KECCAK256 SWAP1 DUP2 ADD SLOAD DUP3 SWAP2 DUP3 SWAP2 DUP3 SWAP1 ISZERO DUP1 ISZERO SWAP1 PUSH2 0xA6D JUMPI POP PUSH1 0x0 DUP3 PUSH1 0x1 ADD SLOAD GT JUMPDEST ISZERO PUSH2 0xAC6 JUMPI PUSH1 0x0 DUP3 PUSH1 0x2 ADD SLOAD TIMESTAMP PUSH2 0xA84 SWAP2 SWAP1 PUSH2 0xDB0 JUMP JUMPDEST SWAP1 POP PUSH1 0x0 PUSH2 0xA95 PUSH3 0x93A80 DUP4 PUSH2 0xDDA JUMP JUMPDEST SWAP1 POP PUSH2 0x2710 DUP2 PUSH2 0x1F4 DUP7 PUSH1 0x1 ADD SLOAD PUSH2 0xAAD SWAP2 SWAP1 PUSH2 0xDC3 JUMP JUMPDEST PUSH2 0xAB7 SWAP2 SWAP1 PUSH2 0xDC3 JUMP JUMPDEST PUSH2 0xAC1 SWAP2 SWAP1 PUSH2 0xDDA JUMP JUMPDEST SWAP3 POP POP POP JUMPDEST DUP2 SLOAD PUSH1 0x1 DUP4 ADD SLOAD PUSH1 0x3 DUP5 ADD SLOAD PUSH2 0xADD SWAP1 DUP5 SWAP1 PUSH2 0xD50 JUMP JUMPDEST SWAP5 POP SWAP5 POP SWAP5 POP POP POP SWAP2 SWAP4 SWAP1 SWAP3 POP JUMP JUMPDEST PUSH2 0xAF4 PUSH2 0xC3C JUMP JUMPDEST PUSH1 0x1 PUSH1 0x1 PUSH1 0xA0 SHL SUB DUP2 AND PUSH2 0xB1E JUMPI PUSH1 0x40 MLOAD PUSH4 0x1E4FBDF7 PUSH1 0xE0 SHL DUP2 MSTORE PUSH1 0x0 PUSH1 0x4 DUP3 ADD MSTORE PUSH1 0x24 ADD PUSH2 0x2AB JUMP JUMPDEST PUSH2 0x5F1 DUP2 PUSH2 0xC69 JUMP JUMPDEST PUSH1 0x2 PUSH1 0x1 SLOAD SUB PUSH2 0xB4A JUMPI PUSH1 0x40 MLOAD PUSH4 0x3EE5AEB5 PUSH1 0xE0 SHL DUP2 MSTORE PUSH1 0x4 ADD PUSH1 0x40 MLOAD DUP1 SWAP2 SUB SWAP1 REVERT JUMPDEST PUSH1 0x2 PUSH1 0x1 SSTORE JUMP JUMPDEST PUSH1 0x1 PUSH1 0x1 PUSH1 0xA0 SHL SUB DUP2 AND PUSH1 0x0 SWAP1 DUP2 MSTORE PUSH1 0x2 PUSH1 0x20 DUP2 SWAP1 MSTORE PUSH1 0x40 DUP3 KECCAK256 SWAP1 DUP2 ADD SLOAD SWAP1 SWAP2 SUB PUSH2 0xB80 JUMPI TIMESTAMP PUSH1 0x2 SWAP1 SWAP2 ADD SSTORE POP JUMP JUMPDEST PUSH1 0x0 DUP2 PUSH1 0x2 ADD SLOAD TIMESTAMP PUSH2 0xB92 SWAP2 SWAP1 PUSH2 0xDB0 JUMP JUMPDEST SWAP1 POP PUSH3 0x93A80 DUP2 LT DUP1 PUSH2 0xBA7 JUMPI POP PUSH1 0x1 DUP3 ADD SLOAD ISZERO JUMPDEST ISZERO PUSH2 0xBB7 JUMPI POP TIMESTAMP PUSH1 0x2 SWAP1 SWAP2 ADD SSTORE POP JUMP JUMPDEST PUSH1 0x0 PUSH2 0xBC6 PUSH3 0x93A80 DUP4 PUSH2 0xDDA JUMP JUMPDEST SWAP1 POP PUSH1 0x0 PUSH2 0x2710 DUP3 PUSH2 0x1F4 DUP7 PUSH1 0x1 ADD SLOAD PUSH2 0xBE0 SWAP2 SWAP1 PUSH2 0xDC3 JUMP JUMPDEST PUSH2 0xBEA SWAP2 SWAP1 PUSH2 0xDC3 JUMP JUMPDEST PUSH2 0xBF4 SWAP2 SWAP1 PUSH2 0xDDA JUMP JUMPDEST SWAP1 POP DUP1 DUP5 PUSH1 0x3 ADD PUSH1 0x0 DUP3 DUP3 SLOAD PUSH2 0xC0A SWAP2 SWAP1 PUSH2 0xD50 JUMP JUMPDEST SWAP1 SWAP2 SSTORE POP PUSH2 0xC1D SWAP1 POP DUP3 PUSH3 0x93A80 PUSH2 0xDC3 JUMP JUMPDEST DUP5 PUSH1 0x2 ADD PUSH1 0x0 DUP3 DUP3 SLOAD PUSH2 0xC30 SWAP2 SWAP1 PUSH2 0xD50 JUMP JUMPDEST SWAP1 SWAP2 SSTORE POP POP POP POP POP POP POP JUMP JUMPDEST PUSH1 0x0 SLOAD PUSH1 0x1 PUSH1 0x1 PUSH1 0xA0 SHL SUB AND CALLER EQ PUSH2 0x3E6 JUMPI PUSH1 0x40 MLOAD PUSH4 0x118CDAA7 PUSH1 0xE0 SHL DUP2 MSTORE CALLER PUSH1 0x4 DUP3 ADD MSTORE PUSH1 0x24 ADD PUSH2 0x2AB JUMP JUMPDEST PUSH1 0x0 DUP1 SLOAD PUSH1 0x1 PUSH1 0x1 PUSH1 0xA0 SHL SUB DUP4 DUP2 AND PUSH1 0x1 PUSH1 0x1 PUSH1 0xA0 SHL SUB NOT DUP4 AND DUP2 OR DUP5 SSTORE PUSH1 0x40 MLOAD SWAP2 SWAP1 SWAP3 AND SWAP3 DUP4 SWAP2 PUSH32 0x8BE0079C531659141344CD1FD0A4F28419497F9722A3DAAFE3B4186F6B6457E0 SWAP2 SWAP1 LOG3 POP POP JUMP JUMPDEST PUSH1 0x0 PUSH1 0x20 DUP3 DUP5 SUB SLT ISZERO PUSH2 0xCCB JUMPI PUSH1 0x0 DUP1 REVERT JUMPDEST POP CALLDATALOAD SWAP2 SWAP1 POP JUMP JUMPDEST DUP1 CALLDATALOAD PUSH1 0x1 PUSH1 0x1 PUSH1 0xA0 SHL SUB DUP2 AND DUP2 EQ PUSH2 0xCE9 JUMPI PUSH1 0x0 DUP1 REVERT JUMPDEST SWAP2 SWAP1 POP JUMP JUMPDEST PUSH1 0x0 DUP1 PUSH1 0x40 DUP4 DUP6 SUB SLT ISZERO PUSH2 0xD01 JUMPI PUSH1 0x0 DUP1 REVERT JUMPDEST PUSH2 0xD0A DUP4 PUSH2 0xCD2 JUMP JUMPDEST SWAP5 PUSH1 0x20 SWAP4 SWAP1 SWAP4 ADD CALLDATALOAD SWAP4 POP POP POP JUMP JUMPDEST PUSH1 0x0 PUSH1 0x20 DUP3 DUP5 SUB SLT ISZERO PUSH2 0xD2A JUMPI PUSH1 0x0 DUP1 REVERT JUMPDEST PUSH2 0xD33 DUP3 PUSH2 0xCD2 JUMP JUMPDEST SWAP4 SWAP3 POP POP POP JUMP JUMPDEST PUSH4 0x4E487B71 PUSH1 0xE0 SHL PUSH1 0x0 MSTORE PUSH1 0x11 PUSH1 0x4 MSTORE PUSH1 0x24 PUSH1 0x0 REVERT JUMPDEST DUP1 DUP3 ADD DUP1 DUP3 GT ISZERO PUSH2 0xD63 JUMPI PUSH2 0xD63 PUSH2 0xD3A JUMP JUMPDEST SWAP3 SWAP2 POP POP JUMP JUMPDEST PUSH1 0x0 PUSH1 0x20 DUP3 DUP5 SUB SLT ISZERO PUSH2 0xD7B JUMPI PUSH1 0x0 DUP1 REVERT JUMPDEST DUP2 MLOAD DUP1 ISZERO ISZERO DUP2 EQ PUSH2 0xD33 JUMPI PUSH1 0x0 DUP1 REVERT JUMPDEST PUSH1 0x20 DUP1 DUP3 MSTORE PUSH1 0xB SWAP1 DUP3 ADD MSTORE PUSH11 0x16995C9BC8185B5BDD5B9D PUSH1 0xAA SHL PUSH1 0x40 DUP3 ADD MSTORE PUSH1 0x60 ADD SWAP1 JUMP JUMPDEST DUP2 DUP2 SUB DUP2 DUP2 GT ISZERO PUSH2 0xD63 JUMPI PUSH2 0xD63 PUSH2 0xD3A JUMP JUMPDEST DUP1 DUP3 MUL DUP2 ISZERO DUP3 DUP3 DIV DUP5 EQ OR PUSH2 0xD63 JUMPI PUSH2 0xD63 PUSH2 0xD3A JUMP JUMPDEST PUSH1 0x0 DUP3 PUSH2 0xDF7 JUMPI PUSH4 0x4E487B71 PUSH1 0xE0 SHL PUSH1 0x0 MSTORE PUSH1 0x12 PUSH1 0x4 MSTORE PUSH1 0x24 PUSH1 0x0 REVERT JUMPDEST POP DIV SWAP1 JUMP INVALID LOG2 PUSH5 0x6970667358 0x22 SLT KECCAK256 0x22 PUSH9 0xEB05BA1C79DC39C324 0x24 0xED 0xE PUSH10 0xAE8706A6D2A32B0C7CD8 DUP15 0xDE ADDRESS DUP5 PUSH4 0xCBB56473 PUSH16 0x6C634300081C00330000000000000000 "},"methodIdentifiers":{"BASIS_POINTS()":"e1f1c4a7","MIN_COLLATERAL_RATIO()":"7a9fffb7","WEEKLY_INTEREST_RATE()":"52a8d63e","addCollateral(uint256)":"bcc46e83","collateralToken()":"b2016bd4","drawLoan(uint256)":"41c379c9","fetchPosition(address)":"e17e8527","loanToken()":"06d37817","owner()":"8da5cb5b","recoverERC20(address,uint256)":"8980f11f","removeCollateral(uint256)":"3237c158","renounceOwnership()":"715018a6","repayDebt()":"1b99d9d6","transferOwnership(address)":"f2fde38b"}}}}}