{
    "_format": "hh-sol-artifact-1",
    "contractName": "LendingProtocol",
    "sourceName": "contracts/LendingProtocol.sol",
    "abi": [
        {
            "inputs": [
                {
                    "internalType": "address",
                    "name": "_collateralToken",
                    "type": "address"
                },
                {
                    "internalType": "address",
                    "name": "_loanToken",
                    "type": "address"
                }
            ],
            "stateMutability": "nonpayable",
            "type": "constructor"
        },
        {
            "anonymous": false,
            "inputs": [
                {
                    "indexed": true,
                    "internalType": "address",
                    "name": "user",
                    "type": "address"
                },
                {
                    "indexed": false,
                    "internalType": "uint256",
                    "name": "amount",
                    "type": "uint256"
                }
            ],
            "name": "CollateralDeposited",
            "type": "event"
        },
        {
            "anonymous": false,
            "inputs": [
                {
                    "indexed": true,
                    "internalType": "address",
                    "name": "user",
                    "type": "address"
                },
                {
                    "indexed": false,
                    "internalType": "uint256",
                    "name": "amount",
                    "type": "uint256"
                }
            ],
            "name": "CollateralWithdrawn",
            "type": "event"
        },
        {
            "anonymous": false,
            "inputs": [
                {
                    "indexed": true,
                    "internalType": "address",
                    "name": "user",
                    "type": "address"
                },
                {
                    "indexed": false,
                    "internalType": "uint256",
                    "name": "amount",
                    "type": "uint256"
                }
            ],
            "name": "LoanBorrowed",
            "type": "event"
        },
        {
            "anonymous": false,
            "inputs": [
                {
                    "indexed": true,
                    "internalType": "address",
                    "name": "user",
                    "type": "address"
                },
                {
                    "indexed": false,
                    "internalType": "uint256",
                    "name": "amount",
                    "type": "uint256"
                }
            ],
            "name": "LoanRepaid",
            "type": "event"
        },
        {
            "inputs": [],
            "name": "COLLATERALIZATION_RATIO",
            "outputs": [
                {
                    "internalType": "uint256",
                    "name": "",
                    "type": "uint256"
                }
            ],
            "stateMutability": "view",
            "type": "function"
        },
        {
            "inputs": [],
            "name": "SECONDS_PER_WEEK",
            "outputs": [
                {
                    "internalType": "uint256",
                    "name": "",
                    "type": "uint256"
                }
            ],
            "stateMutability": "view",
            "type": "function"
        },
        {
            "inputs": [],
            "name": "WEEKLY_INTEREST",
            "outputs": [
                {
                    "internalType": "uint256",
                    "name": "",
                    "type": "uint256"
                }
            ],
            "stateMutability": "view",
            "type": "function"
        },
        {
            "inputs": [
                {
                    "internalType": "uint256",
                    "name": "amount",
                    "type": "uint256"
                }
            ],
            "name": "borrow",
            "outputs": [],
            "stateMutability": "nonpayable",
            "type": "function"
        },
        {
            "inputs": [],
            "name": "collateralToken",
            "outputs": [
                {
                    "internalType": "contract IERC20",
                    "name": "",
                    "type": "address"
                }
            ],
            "stateMutability": "view",
            "type": "function"
        },
        {
            "inputs": [
                {
                    "internalType": "uint256",
                    "name": "amount",
                    "type": "uint256"
                }
            ],
            "name": "depositCollateral",
            "outputs": [],
            "stateMutability": "nonpayable",
            "type": "function"
        },
        {
            "inputs": [
                {
                    "internalType": "address",
                    "name": "user",
                    "type": "address"
                }
            ],
            "name": "getCurrentDebt",
            "outputs": [
                {
                    "internalType": "uint256",
                    "name": "",
                    "type": "uint256"
                }
            ],
            "stateMutability": "view",
            "type": "function"
        },
        {
            "inputs": [
                {
                    "internalType": "address",
                    "name": "user",
                    "type": "address"
                }
            ],
            "name": "getUserData",
            "outputs": [
                {
                    "internalType": "uint256",
                    "name": "collateral",
                    "type": "uint256"
                },
                {
                    "internalType": "uint256",
                    "name": "currentDebt",
                    "type": "uint256"
                },
                {
                    "internalType": "uint256",
                    "name": "interestAccrued",
                    "type": "uint256"
                }
            ],
            "stateMutability": "view",
            "type": "function"
        },
        {
            "inputs": [],
            "name": "loanToken",
            "outputs": [
                {
                    "internalType": "contract IERC20",
                    "name": "",
                    "type": "address"
                }
            ],
            "stateMutability": "view",
            "type": "function"
        },
        {
            "inputs": [
                {
                    "internalType": "address",
                    "name": "",
                    "type": "address"
                }
            ],
            "name": "positions",
            "outputs": [
                {
                    "internalType": "uint256",
                    "name": "collateral",
                    "type": "uint256"
                },
                {
                    "internalType": "uint256",
                    "name": "debtPrincipal",
                    "type": "uint256"
                },
                {
                    "internalType": "uint256",
                    "name": "debtTimestamp",
                    "type": "uint256"
                }
            ],
            "stateMutability": "view",
            "type": "function"
        },
        {
            "inputs": [],
            "name": "repay",
            "outputs": [],
            "stateMutability": "nonpayable",
            "type": "function"
        },
        {
            "inputs": [],
            "name": "withdrawCollateral",
            "outputs": [],
            "stateMutability": "nonpayable",
            "type": "function"
        }
    ],
    "bytecode": "0x608060405234801561001057600080fd5b506040516114223803806114228339818101604052810190610032919061011d565b816000806101000a81548173ffffffffffffffffffffffffffffffffffffffff021916908373ffffffffffffffffffffffffffffffffffffffff16021790555080600160006101000a81548173ffffffffffffffffffffffffffffffffffffffff021916908373ffffffffffffffffffffffffffffffffffffffff160217905550505061015d565b600080fd5b600073ffffffffffffffffffffffffffffffffffffffff82169050919050565b60006100ea826100bf565b9050919050565b6100fa816100df565b811461010557600080fd5b50565b600081519050610117816100f1565b92915050565b60008060408385031215610134576101336100ba565b5b600061014285828601610108565b925050602061015385828601610108565b9150509250929050565b6112b68061016c6000396000f3fe608060405234801561001057600080fd5b50600436106100b45760003560e01c806384ae2a741161007157806384ae2a7414610159578063b2016bd414610177578063b86ef1cc14610195578063bad4a01f146101c5578063c5ebeaec146101e1578063ffc9896b146101fd576100b4565b806306d37817146100b95780633402ff1d146100d7578063402d8883146100f5578063498f35e7146100ff57806355f575101461011d57806359c153be1461014f575b600080fd5b6100c161022f565b6040516100ce9190610c8b565b60405180910390f35b6100df610255565b6040516100ec9190610cbf565b60405180910390f35b6100fd61025a565b005b610107610438565b6040516101149190610cbf565b60405180910390f35b61013760048036038101906101329190610d1d565b61043d565b60405161014693929190610d4a565b60405180910390f35b610157610467565b005b61016161063c565b60405161016e9190610cbf565b60405180910390f35b61017f610643565b60405161018c9190610c8b565b60405180910390f35b6101af60048036038101906101aa9190610d1d565b610667565b6040516101bc9190610cbf565b60405180910390f35b6101df60048036038101906101da9190610dad565b610763565b005b6101fb60048036038101906101f69190610dad565b6108f1565b005b61021760048036038101906102129190610d1d565b610b70565b60405161022693929190610d4a565b60405180910390f35b600160009054906101000a900473ffffffffffffffffffffffffffffffffffffffff1681565b609681565b6000600260003373ffffffffffffffffffffffffffffffffffffffff1673ffffffffffffffffffffffffffffffffffffffff168152602001908152602001600020905060008160010154116102e4576040517f08c379a00000000000000000000000000000000000000000000000000000000081526004016102db90610e37565b60405180910390fd5b60006102ef33610667565b9050600160009054906101000a900473ffffffffffffffffffffffffffffffffffffffff1673ffffffffffffffffffffffffffffffffffffffff166323b872dd3330846040518463ffffffff1660e01b815260040161035093929190610e66565b6020604051808303816000875af115801561036f573d6000803e3d6000fd5b505050506040513d601f19601f820116820180604052508101906103939190610ed5565b6103d2576040517f08c379a00000000000000000000000000000000000000000000000000000000081526004016103c990610f4e565b60405180910390fd5b60008260010181905550600082600201819055503373ffffffffffffffffffffffffffffffffffffffff167fc200a1f31dd659e356e0f112c82558e25f49f7b0f84438691cd96f5cb35588238260405161042c9190610cbf565b60405180910390a25050565b600581565b60026020528060005260406000206000915090508060000154908060010154908060020154905083565b6000600260003373ffffffffffffffffffffffffffffffffffffffff1673ffffffffffffffffffffffffffffffffffffffff168152602001908152602001600020905060008160010154146104f1576040517f08c379a00000000000000000000000000000000000000000000000000000000081526004016104e890610fba565b60405180910390fd5b6000816000015411610538576040517f08c379a000000000000000000000000000000000000000000000000000000000815260040161052f90611026565b60405180910390fd5b6000816000015490506000826000018190555060008054906101000a900473ffffffffffffffffffffffffffffffffffffffff1673ffffffffffffffffffffffffffffffffffffffff1663a9059cbb33836040518363ffffffff1660e01b81526004016105a6929190611046565b6020604051808303816000875af11580156105c5573d6000803e3d6000fd5b505050506040513d601f19601f820116820180604052508101906105e99190610ed5565b503373ffffffffffffffffffffffffffffffffffffffff167fc30fcfbcaac9e0deffa719714eaa82396ff506a0d0d0eebe170830177288715d826040516106309190610cbf565b60405180910390a25050565b62093a8081565b60008054906101000a900473ffffffffffffffffffffffffffffffffffffffff1681565b600080600260008473ffffffffffffffffffffffffffffffffffffffff1673ffffffffffffffffffffffffffffffffffffffff1681526020019081526020016000206040518060600160405290816000820154815260200160018201548152602001600282015481525050905060008160200151036106ea57600091505061075e565b600062093a80826040015142610700919061109e565b61070a9190611101565b9050600081036107225781602001519250505061075e565b606481600584602001516107369190611132565b6107409190611132565b61074a9190611101565b82602001516107599190611174565b925050505b919050565b600081116107a6576040517f08c379a000000000000000000000000000000000000000000000000000000000815260040161079d906111f4565b60405180910390fd5b60008054906101000a900473ffffffffffffffffffffffffffffffffffffffff1673ffffffffffffffffffffffffffffffffffffffff166323b872dd3330846040518463ffffffff1660e01b815260040161080393929190610e66565b6020604051808303816000875af1158015610822573d6000803e3d6000fd5b505050506040513d601f19601f820116820180604052508101906108469190610ed5565b5080600260003373ffffffffffffffffffffffffffffffffffffffff1673ffffffffffffffffffffffffffffffffffffffff16815260200190815260200160002060000160008282546108999190611174565b925050819055503373ffffffffffffffffffffffffffffffffffffffff167fd7243f6f8212d5188fd054141cf6ea89cfc0d91facb8c3afe2f88a1358480142826040516108e69190610cbf565b60405180910390a250565b60008111610934576040517f08c379a000000000000000000000000000000000000000000000000000000000815260040161092b906111f4565b60405180910390fd5b6000600260003373ffffffffffffffffffffffffffffffffffffffff1673ffffffffffffffffffffffffffffffffffffffff1681526020019081526020016000209050600060966064836000015461098c9190611132565b6109969190611101565b9050808311156109db576040517f08c379a00000000000000000000000000000000000000000000000000000000081526004016109d290611260565b60405180910390fd5b600082600101541115610a5857600062093a808360020154426109fe919061109e565b610a089190611101565b90506000811115610a565760648160058560010154610a279190611132565b610a319190611132565b610a3b9190611101565b836001016000828254610a4e9190611174565b925050819055505b505b82826001016000828254610a6c9190611174565b92505081905550428260020181905550600160009054906101000a900473ffffffffffffffffffffffffffffffffffffffff1673ffffffffffffffffffffffffffffffffffffffff1663a9059cbb33856040518363ffffffff1660e01b8152600401610ad9929190611046565b6020604051808303816000875af1158015610af8573d6000803e3d6000fd5b505050506040513d601f19601f82011682018060405250810190610b1c9190610ed5565b503373ffffffffffffffffffffffffffffffffffffffff167ffb8ea5178ac89ff9d832e8c9c1b977ca7ab31f52ac7a4179f2e2e065b093565b84604051610b639190610cbf565b60405180910390a2505050565b600080600080600260008673ffffffffffffffffffffffffffffffffffffffff1673ffffffffffffffffffffffffffffffffffffffff1681526020019081526020016000206040518060600160405290816000820154815260200160018201548152602001600282015481525050905080600001519350610bf085610667565b9250806020015183610c02919061109e565b9150509193909250565b600073ffffffffffffffffffffffffffffffffffffffff82169050919050565b6000819050919050565b6000610c51610c4c610c4784610c0c565b610c2c565b610c0c565b9050919050565b6000610c6382610c36565b9050919050565b6000610c7582610c58565b9050919050565b610c8581610c6a565b82525050565b6000602082019050610ca06000830184610c7c565b92915050565b6000819050919050565b610cb981610ca6565b82525050565b6000602082019050610cd46000830184610cb0565b92915050565b600080fd5b6000610cea82610c0c565b9050919050565b610cfa81610cdf565b8114610d0557600080fd5b50565b600081359050610d1781610cf1565b92915050565b600060208284031215610d3357610d32610cda565b5b6000610d4184828501610d08565b91505092915050565b6000606082019050610d5f6000830186610cb0565b610d6c6020830185610cb0565b610d796040830184610cb0565b949350505050565b610d8a81610ca6565b8114610d9557600080fd5b50565b600081359050610da781610d81565b92915050565b600060208284031215610dc357610dc2610cda565b5b6000610dd184828501610d98565b91505092915050565b600082825260208201905092915050565b7f4e6f206465627420746f20726570617900000000000000000000000000000000600082015250565b6000610e21601083610dda565b9150610e2c82610deb565b602082019050919050565b60006020820190508181036000830152610e5081610e14565b9050919050565b610e6081610cdf565b82525050565b6000606082019050610e7b6000830186610e57565b610e886020830185610e57565b610e956040830184610cb0565b949350505050565b60008115159050919050565b610eb281610e9d565b8114610ebd57600080fd5b50565b600081519050610ecf81610ea9565b92915050565b600060208284031215610eeb57610eea610cda565b5b6000610ef984828501610ec0565b91505092915050565b7f5472616e73666572206661696c65640000000000000000000000000000000000600082015250565b6000610f38600f83610dda565b9150610f4382610f02565b602082019050919050565b60006020820190508181036000830152610f6781610f2b565b9050919050565b7f4f75747374616e64696e67206465627400000000000000000000000000000000600082015250565b6000610fa4601083610dda565b9150610faf82610f6e565b602082019050919050565b60006020820190508181036000830152610fd381610f97565b9050919050565b7f4e6f20636f6c6c61746572616c00000000000000000000000000000000000000600082015250565b6000611010600d83610dda565b915061101b82610fda565b602082019050919050565b6000602082019050818103600083015261103f81611003565b9050919050565b600060408201905061105b6000830185610e57565b6110686020830184610cb0565b9392505050565b7f4e487b7100000000000000000000000000000000000000000000000000000000600052601160045260246000fd5b60006110a982610ca6565b91506110b483610ca6565b92508282039050818111156110cc576110cb61106f565b5b92915050565b7f4e487b7100000000000000000000000000000000000000000000000000000000600052601260045260246000fd5b600061110c82610ca6565b915061111783610ca6565b925082611127576111266110d2565b5b828204905092915050565b600061113d82610ca6565b915061114883610ca6565b925082820261115681610ca6565b9150828204841483151761116d5761116c61106f565b5b5092915050565b600061117f82610ca6565b915061118a83610ca6565b92508282019050808211156111a2576111a161106f565b5b92915050565b7f416d6f756e74206d757374206265203e20300000000000000000000000000000600082015250565b60006111de601283610dda565b91506111e9826111a8565b602082019050919050565b6000602082019050818103600083015261120d816111d1565b9050919050565b7f4578636565647320626f72726f77206c696d6974000000000000000000000000600082015250565b600061124a601483610dda565b915061125582611214565b602082019050919050565b600060208201905081810360008301526112798161123d565b905091905056fea2646970667358221220ea5f6c2336fb97de5ecfcf74733e85062d0f7478b4e7b7d7e4255eb0ab63c3f964736f6c634300081c0033",
    "linkReferences": {},
    "deployedLinkReferences": {}
}