{
  "_format": "hh-sol-artifact-1",
  "contractName": "LendingProtocol",
  "sourceName": "contracts/LendingProtocol.sol",
  "abi": [
    {
      "inputs": [
        {
          "internalType": "address",
          "name": "_collateralToken",
          "type": "address"
        },
        {
          "internalType": "address",
          "name": "_loanToken",
          "type": "address"
        }
      ],
      "stateMutability": "nonpayable",
      "type": "constructor"
    },
    {
      "inputs": [
        {
          "internalType": "address",
          "name": "owner",
          "type": "address"
        }
      ],
      "name": "OwnableInvalidOwner",
      "type": "error"
    },
    {
      "inputs": [
        {
          "internalType": "address",
          "name": "account",
          "type": "address"
        }
      ],
      "name": "OwnableUnauthorizedAccount",
      "type": "error"
    },
    {
      "anonymous": false,
      "inputs": [
        {
          "indexed": true,
          "internalType": "address",
          "name": "user",
          "type": "address"
        },
        {
          "indexed": false,
          "internalType": "uint256",
          "name": "amount",
          "type": "uint256"
        }
      ],
      "name": "Borrowed",
      "type": "event"
    },
    {
      "anonymous": false,
      "inputs": [
        {
          "indexed": true,
          "internalType": "address",
          "name": "user",
          "type": "address"
        },
        {
          "indexed": false,
          "internalType": "uint256",
          "name": "amount",
          "type": "uint256"
        }
      ],
      "name": "CollateralDeposited",
      "type": "event"
    },
    {
      "anonymous": false,
      "inputs": [
        {
          "indexed": true,
          "internalType": "address",
          "name": "user",
          "type": "address"
        },
        {
          "indexed": false,
          "internalType": "uint256",
          "name": "amount",
          "type": "uint256"
        }
      ],
      "name": "CollateralWithdrawn",
      "type": "event"
    },
    {
      "anonymous": false,
      "inputs": [
        {
          "indexed": true,
          "internalType": "address",
          "name": "previousOwner",
          "type": "address"
        },
        {
          "indexed": true,
          "internalType": "address",
          "name": "newOwner",
          "type": "address"
        }
      ],
      "name": "OwnershipTransferred",
      "type": "event"
    },
    {
      "anonymous": false,
      "inputs": [
        {
          "indexed": true,
          "internalType": "address",
          "name": "user",
          "type": "address"
        },
        {
          "indexed": false,
          "internalType": "uint256",
          "name": "amountPlusInterest",
          "type": "uint256"
        }
      ],
      "name": "Repaid",
      "type": "event"
    },
    {
      "inputs": [],
      "name": "WEEKLY_INTEREST_RATE",
      "outputs": [
        {
          "internalType": "uint256",
          "name": "",
          "type": "uint256"
        }
      ],
      "stateMutability": "view",
      "type": "function"
    },
    {
      "inputs": [
        {
          "internalType": "uint256",
          "name": "amount",
          "type": "uint256"
        }
      ],
      "name": "borrow",
      "outputs": [],
      "stateMutability": "nonpayable",
      "type": "function"
    },
    {
      "inputs": [],
      "name": "collateralToken",
      "outputs": [
        {
          "internalType": "contract IERC20",
          "name": "",
          "type": "address"
        }
      ],
      "stateMutability": "view",
      "type": "function"
    },
    {
      "inputs": [
        {
          "internalType": "uint256",
          "name": "amount",
          "type": "uint256"
        }
      ],
      "name": "depositCollateral",
      "outputs": [],
      "stateMutability": "nonpayable",
      "type": "function"
    },
    {
      "inputs": [
        {
          "internalType": "address",
          "name": "user",
          "type": "address"
        }
      ],
      "name": "getUserData",
      "outputs": [
        {
          "internalType": "uint256",
          "name": "_collateralBalance",
          "type": "uint256"
        },
        {
          "internalType": "uint256",
          "name": "_principalDebt",
          "type": "uint256"
        },
        {
          "internalType": "uint256",
          "name": "_accruedInterest",
          "type": "uint256"
        }
      ],
      "stateMutability": "view",
      "type": "function"
    },
    {
      "inputs": [],
      "name": "loanToken",
      "outputs": [
        {
          "internalType": "contract IERC20",
          "name": "",
          "type": "address"
        }
      ],
      "stateMutability": "view",
      "type": "function"
    },
    {
      "inputs": [],
      "name": "owner",
      "outputs": [
        {
          "internalType": "address",
          "name": "",
          "type": "address"
        }
      ],
      "stateMutability": "view",
      "type": "function"
    },
    {
      "inputs": [],
      "name": "renounceOwnership",
      "outputs": [],
      "stateMutability": "nonpayable",
      "type": "function"
    },
    {
      "inputs": [],
      "name": "repay",
      "outputs": [],
      "stateMutability": "nonpayable",
      "type": "function"
    },
    {
      "inputs": [
        {
          "internalType": "address",
          "name": "token",
          "type": "address"
        },
        {
          "internalType": "address",
          "name": "to",
          "type": "address"
        },
        {
          "internalType": "uint256",
          "name": "amount",
          "type": "uint256"
        }
      ],
      "name": "rescueTokens",
      "outputs": [],
      "stateMutability": "nonpayable",
      "type": "function"
    },
    {
      "inputs": [
        {
          "internalType": "address",
          "name": "newOwner",
          "type": "address"
        }
      ],
      "name": "transferOwnership",
      "outputs": [],
      "stateMutability": "nonpayable",
      "type": "function"
    },
    {
      "inputs": [],
      "name": "withdrawCollateral",
      "outputs": [],
      "stateMutability": "nonpayable",
      "type": "function"
    }
  ],
  "bytecode": "0x608060405234801561001057600080fd5b50604051610fb9380380610fb983398101604081905261002f916100fc565b338061005557604051631e4fbdf760e01b81526000600482015260240160405180910390fd5b61005e81610090565b50600180546001600160a01b039384166001600160a01b0319918216179091556002805492909316911617905561012f565b600080546001600160a01b038381166001600160a01b0319831681178455604051919092169283917f8be0079c531659141344cd1fd0a4f28419497f9722a3daafe3b4186f6b6457e09190a35050565b80516001600160a01b03811681146100f757600080fd5b919050565b6000806040838503121561010f57600080fd5b610118836100e0565b9150610126602084016100e0565b90509250929050565b610e7b8061013e6000396000f3fe608060405234801561001057600080fd5b50600436106100b45760003560e01c8063b2016bd411610071578063b2016bd414610130578063bad4a01f14610143578063c5ebeaec14610156578063cea9d26f14610169578063f2fde38b1461017c578063ffc9896b1461018f57600080fd5b806306d37817146100b9578063402d8883146100e957806352a8d63e146100f357806359c153be1461010f578063715018a6146101175780638da5cb5b1461011f575b600080fd5b6002546100cc906001600160a01b031681565b6040516001600160a01b0390911681526020015b60405180910390f35b6100f16101bd565b005b61010166b1a2bc2ec5000081565b6040519081526020016100e0565b6100f1610377565b6100f1610571565b6000546001600160a01b03166100cc565b6001546100cc906001600160a01b031681565b6100f1610151366004610d15565b610585565b6100f1610164366004610d15565b61071f565b6100f1610177366004610d4a565b6109c6565b6100f161018a366004610d86565b610a47565b6101a261019d366004610d86565b610a85565b604080519384526020840192909252908201526060016100e0565b6101c633610b79565b33600090815260046020908152604080832054600690925282205490916101ed8284610dbe565b90506000811161023a5760405162461bcd60e51b815260206004820152601360248201527253696e2064657564612070656e6469656e746560681b60448201526064015b60405180910390fd5b6002546040516323b872dd60e01b8152336004820152306024820152604481018390526000916001600160a01b0316906323b872dd906064016020604051808303816000875af1158015610292573d6000803e3d6000fd5b505050506040513d601f19601f820116820180604052508101906102b69190610dd7565b9050806103175760405162461bcd60e51b815260206004820152602960248201527f5472616e73666572206465204c6f616e546f6b656e20706172612072657061676044820152686f2066616c6c69646160b81b6064820152608401610231565b33600081815260046020908152604080832083905560068252808320839055600582528083209290925590518481527f0516911bcc3a0a7412a44601057c0a0a1ec628bde049a84284bc428866534488910160405180910390a250505050565b61038033610b79565b336000908152600660209081526040808320546004909252909120546103a69190610dbe565b156103fe5760405162461bcd60e51b815260206004820152602260248201527f44657564612070656e6469656e74652c206e6f2070756564657320726574697260448201526130b960f11b6064820152608401610231565b33600090815260036020526040902054806104515760405162461bcd60e51b8152602060048201526013602482015272139bc81d1a595b995cc818dbdb185d195c985b606a1b6044820152606401610231565b33600081815260036020526040808220829055600154905163a9059cbb60e01b815260048101939093526024830184905290916001600160a01b039091169063a9059cbb906044016020604051808303816000875af11580156104b8573d6000803e3d6000fd5b505050506040513d601f19601f820116820180604052508101906104dc9190610dd7565b9050806105375760405162461bcd60e51b815260206004820152602360248201527f5472616e7366657220646520436f6c6c61746572616c546f6b656e2066616c6c60448201526269646160e81b6064820152608401610231565b60405182815233907fc30fcfbcaac9e0deffa719714eaa82396ff506a0d0d0eebe170830177288715d906020015b60405180910390a25050565b610579610c98565b6105836000610cc5565b565b600081116105d55760405162461bcd60e51b815260206004820152601f60248201527f4d6f6e746f20646520636f6c61746572616c206465626520736572203e2030006044820152606401610231565b6001546040516323b872dd60e01b8152336004820152306024820152604481018390526000916001600160a01b0316906323b872dd906064016020604051808303816000875af115801561062d573d6000803e3d6000fd5b505050506040513d601f19601f820116820180604052508101906106519190610dd7565b9050806106935760405162461bcd60e51b815260206004820152601060248201526f5472616e736665722066616c6c69646160801b6044820152606401610231565b33600090815260036020526040812080548492906106b2908490610dbe565b909155505033600090815260046020526040902054156106da576106d533610b79565b6106ed565b3360009081526005602052604090204290555b60405182815233907fd7243f6f8212d5188fd054141cf6ea89cfc0d91facb8c3afe2f88a135848014290602001610565565b6000811161076f5760405162461bcd60e51b815260206004820152601e60248201527f4d6f6e746f206465207072657374616d6f206465626520736572203e203000006044820152606401610231565b336000908152600360205260409020546107cb5760405162461bcd60e51b815260206004820152601e60248201527f4e6f207469656e657320636f6c61746572616c206465706f73697461646f00006044820152606401610231565b6107d433610b79565b3360009081526006602090815260408083205460049092528220546107f99190610dbe565b905060006108078383610dbe565b3360009081526003602052604081205491925090606490610829906042610df9565b6108339190610e10565b9050808211156108965760405162461bcd60e51b815260206004820152602860248201527f45786365646520726174696f20646520636f6c61746572616c697a6163696f6e604482015267206465203135302560c01b6064820152608401610231565b336000908152600460205260409020546108b1908590610dbe565b33600081815260046020819052604080832094909455600254935163a9059cbb60e01b81529081019290925260248201879052916001600160a01b03169063a9059cbb906044016020604051808303816000875af1158015610917573d6000803e3d6000fd5b505050506040513d601f19601f8201168201806040525081019061093b9190610dd7565b90508061098a5760405162461bcd60e51b815260206004820152601d60248201527f5472616e73666572206465204c6f616e546f6b656e2066616c6c6964610000006044820152606401610231565b60405185815233907fac59582e5396aca512fa873a2047e7f4c80f8f55d4a06cb34a78a0187f62719f9060200160405180910390a25050505050565b6109ce610c98565b60405163a9059cbb60e01b81526001600160a01b0383811660048301526024820183905284169063a9059cbb906044016020604051808303816000875af1158015610a1d573d6000803e3d6000fd5b505050506040513d601f19601f82011682018060405250810190610a419190610dd7565b50505050565b610a4f610c98565b6001600160a01b038116610a7957604051631e4fbdf760e01b815260006004820152602401610231565b610a8281610cc5565b50565b6001600160a01b03811660009081526006602090815260408083205460049092528220548291829115610b47576001600160a01b038516600090815260056020526040812054610ad59042610e32565b90506000610ae662093a8083610e10565b6001600160a01b03881660009081526004602052604081205491925090670de0b6b3a7640000908390610b219066b1a2bc2ec5000090610df9565b610b2b9190610df9565b610b359190610e10565b9050610b418185610dbe565b93505050505b6001600160a01b0394909416600090815260036020908152604080832054600490925290912054909590949350915050565b6001600160a01b03811660009081526004602052604081205490819003610bb757506001600160a01b03166000908152600560205260409020429055565b6001600160a01b038216600090815260056020526040812054610bda9042610e32565b90506000610beb62093a8083610e10565b90508015610a41576000670de0b6b3a764000082610c1066b1a2bc2ec5000087610df9565b610c1a9190610df9565b610c249190610e10565b6001600160a01b038616600090815260066020526040812080549293508392909190610c51908490610dbe565b90915550610c6490508262093a80610df9565b6001600160a01b03861660009081526005602052604081208054909190610c8c908490610dbe565b90915550505050505050565b6000546001600160a01b031633146105835760405163118cdaa760e01b8152336004820152602401610231565b600080546001600160a01b038381166001600160a01b0319831681178455604051919092169283917f8be0079c531659141344cd1fd0a4f28419497f9722a3daafe3b4186f6b6457e09190a35050565b600060208284031215610d2757600080fd5b5035919050565b80356001600160a01b0381168114610d4557600080fd5b919050565b600080600060608486031215610d5f57600080fd5b610d6884610d2e565b9250610d7660208501610d2e565b9150604084013590509250925092565b600060208284031215610d9857600080fd5b610da182610d2e565b9392505050565b634e487b7160e01b600052601160045260246000fd5b80820180821115610dd157610dd1610da8565b92915050565b600060208284031215610de957600080fd5b81518015158114610da157600080fd5b8082028115828204841417610dd157610dd1610da8565b600082610e2d57634e487b7160e01b600052601260045260246000fd5b500490565b81810381811115610dd157610dd1610da856fea2646970667358221220af7bcfd9c71f796cd91d8678b78be41b2ac9cfcd2d3dde2212a61121d70c4ab664736f6c63430008140033",
  "linkReferences": {},
  "deployedLinkReferences": {}
}